{
  "contracts/TokenSale.sol": {
    "DopexTokenSale": {
      "abi": [
        {
          "inputs": [
            {
              "internalType": "address",
              "name": "_dpx",
              "type": "address"
            },
            {
              "internalType": "address",
              "name": "_rdpx",
              "type": "address"
            },
            {
              "internalType": "address",
              "name": "_owner",
              "type": "address"
            },
            {
              "internalType": "uint256",
              "name": "_saleWhitelistStart",
              "type": "uint256"
            },
            {
              "internalType": "uint256",
              "name": "_saleStart",
              "type": "uint256"
            },
            {
              "internalType": "uint256",
              "name": "_saleClose",
              "type": "uint256"
            },
            {
              "internalType": "uint256",
              "name": "_maxDeposits",
              "type": "uint256"
            },
            {
              "internalType": "uint256",
              "name": "_dpxTokensAllocated",
              "type": "uint256"
            },
            {
              "internalType": "uint256",
              "name": "_rdpxTokensAllocated",
              "type": "uint256"
            },
            {
              "internalType": "uint256",
              "name": "_maxWhitelistDeposit",
              "type": "uint256"
            },
            {
              "internalType": "bytes32",
              "name": "_merkleRoot",
              "type": "bytes32"
            }
          ],
          "stateMutability": "nonpayable",
          "type": "constructor"
        },
        {
          "anonymous": false,
          "inputs": [
            {
              "indexed": true,
              "internalType": "address",
              "name": "claimer",
              "type": "address"
            },
            {
              "indexed": true,
              "internalType": "address",
              "name": "beneficiary",
              "type": "address"
            },
            {
              "indexed": false,
              "internalType": "uint256",
              "name": "amount",
              "type": "uint256"
            }
          ],
          "name": "TokenClaim",
          "type": "event"
        },
        {
          "anonymous": false,
          "inputs": [
            {
              "indexed": true,
              "internalType": "address",
              "name": "purchaser",
              "type": "address"
            },
            {
              "indexed": true,
              "internalType": "address",
              "name": "beneficiary",
              "type": "address"
            },
            {
              "indexed": true,
              "internalType": "bool",
              "name": "isWhitelistDeposit",
              "type": "bool"
            },
            {
              "indexed": false,
              "internalType": "uint256",
              "name": "value",
              "type": "uint256"
            }
          ],
          "name": "TokenDeposit",
          "type": "event"
        },
        {
          "anonymous": false,
          "inputs": [
            {
              "indexed": false,
              "internalType": "uint256",
              "name": "amount",
              "type": "uint256"
            }
          ],
          "name": "WithdrawEth",
          "type": "event"
        },
        {
          "inputs": [
            {
              "internalType": "address",
              "name": "beneficiary",
              "type": "address"
            }
          ],
          "name": "claim",
          "outputs": [
            {
              "internalType": "uint256",
              "name": "",
              "type": "uint256"
            }
          ],
          "stateMutability": "nonpayable",
          "type": "function"
        },
        {
          "inputs": [
            {
              "internalType": "address",
              "name": "beneficiary",
              "type": "address"
            }
          ],
          "name": "claimAmount",
          "outputs": [
            {
              "internalType": "uint256",
              "name": "",
              "type": "uint256"
            }
          ],
          "stateMutability": "view",
          "type": "function"
        },
        {
          "inputs": [
            {
              "internalType": "address",
              "name": "beneficiary",
              "type": "address"
            }
          ],
          "name": "deposit",
          "outputs": [],
          "stateMutability": "payable",
          "type": "function"
        },
        {
          "inputs": [
            {
              "internalType": "uint256",
              "name": "index",
              "type": "uint256"
            },
            {
              "internalType": "address",
              "name": "beneficiary",
              "type": "address"
            },
            {
              "internalType": "bytes32[]",
              "name": "merkleProof",
              "type": "bytes32[]"
            }
          ],
          "name": "depositForWhitelistedAddress",
          "outputs": [],
          "stateMutability": "payable",
          "type": "function"
        },
        {
          "inputs": [
            {
              "internalType": "address",
              "name": "",
              "type": "address"
            }
          ],
          "name": "deposits",
          "outputs": [
            {
              "internalType": "uint256",
              "name": "",
              "type": "uint256"
            }
          ],
          "stateMutability": "view",
          "type": "function"
        },
        {
          "inputs": [],
          "name": "dpx",
          "outputs": [
            {
              "internalType": "contract IERC20",
              "name": "",
              "type": "address"
            }
          ],
          "stateMutability": "view",
          "type": "function"
        },
        {
          "inputs": [],
          "name": "dpxTokensAllocated",
          "outputs": [
            {
              "internalType": "uint256",
              "name": "",
              "type": "uint256"
            }
          ],
          "stateMutability": "view",
          "type": "function"
        },
        {
          "inputs": [
            {
              "internalType": "uint256",
              "name": "index",
              "type": "uint256"
            }
          ],
          "name": "isWhitelistedAddressDeposited",
          "outputs": [
            {
              "internalType": "bool",
              "name": "",
              "type": "bool"
            }
          ],
          "stateMutability": "view",
          "type": "function"
        },
        {
          "inputs": [],
          "name": "maxDeposits",
          "outputs": [
            {
              "internalType": "uint256",
              "name": "",
              "type": "uint256"
            }
          ],
          "stateMutability": "view",
          "type": "function"
        },
        {
          "inputs": [],
          "name": "maxWhitelistDeposit",
          "outputs": [
            {
              "internalType": "uint256",
              "name": "",
              "type": "uint256"
            }
          ],
          "stateMutability": "view",
          "type": "function"
        },
        {
          "inputs": [],
          "name": "merkleRoot",
          "outputs": [
            {
              "internalType": "bytes32",
              "name": "",
              "type": "bytes32"
            }
          ],
          "stateMutability": "view",
          "type": "function"
        },
        {
          "inputs": [],
          "name": "owner",
          "outputs": [
            {
              "internalType": "address",
              "name": "",
              "type": "address"
            }
          ],
          "stateMutability": "view",
          "type": "function"
        },
        {
          "inputs": [],
          "name": "rdpx",
          "outputs": [
            {
              "internalType": "contract IERC20",
              "name": "",
              "type": "address"
            }
          ],
          "stateMutability": "view",
          "type": "function"
        },
        {
          "inputs": [],
          "name": "rdpxTokensAllocated",
          "outputs": [
            {
              "internalType": "uint256",
              "name": "",
              "type": "uint256"
            }
          ],
          "stateMutability": "view",
          "type": "function"
        },
        {
          "inputs": [],
          "name": "saleClose",
          "outputs": [
            {
              "internalType": "uint256",
              "name": "",
              "type": "uint256"
            }
          ],
          "stateMutability": "view",
          "type": "function"
        },
        {
          "inputs": [],
          "name": "saleStart",
          "outputs": [
            {
              "internalType": "uint256",
              "name": "",
              "type": "uint256"
            }
          ],
          "stateMutability": "view",
          "type": "function"
        },
        {
          "inputs": [],
          "name": "saleWhitelistStart",
          "outputs": [
            {
              "internalType": "uint256",
              "name": "",
              "type": "uint256"
            }
          ],
          "stateMutability": "view",
          "type": "function"
        },
        {
          "inputs": [],
          "name": "totalSaleParticipants",
          "outputs": [
            {
              "internalType": "uint256",
              "name": "",
              "type": "uint256"
            }
          ],
          "stateMutability": "view",
          "type": "function"
        },
        {
          "inputs": [],
          "name": "weiDeposited",
          "outputs": [
            {
              "internalType": "uint256",
              "name": "",
              "type": "uint256"
            }
          ],
          "stateMutability": "view",
          "type": "function"
        },
        {
          "inputs": [],
          "name": "withdraw",
          "outputs": [],
          "stateMutability": "nonpayable",
          "type": "function"
        },
        {
          "stateMutability": "payable",
          "type": "receive"
        }
      ],
      "evm": {
        "bytecode": {
          "linkReferences": {},
          "object": "60806040523480156200001157600080fd5b50604051620017b0380380620017b08339810160408190526200003491620001eb565b6001600160a01b038916620000665760405162461bcd60e51b81526004016200005d90620002b0565b60405180910390fd5b6001600160a01b038b166200008f5760405162461bcd60e51b81526004016200005d90620002e7565b6001600160a01b038a16620000b85760405162461bcd60e51b81526004016200005d90620002e7565b42871015620000db5760405162461bcd60e51b81526004016200005d9062000285565b868611620000fd5760405162461bcd60e51b81526004016200005d90620003c3565b60008511620001205760405162461bcd60e51b81526004016200005d906200038c565b60008411620001435760405162461bcd60e51b81526004016200005d906200031e565b60008311620001665760405162461bcd60e51b81526004016200005d9062000355565b600080546001600160a01b03199081166001600160a01b039d8e16179091556001805482169b8d169b909b17909a5560028054909a1698909a1697909717909755600494909455600592909255600655600755600855600991909155600b55600c55620003ee565b80516001600160a01b0381168114620001e657600080fd5b919050565b60008060008060008060008060008060006101608c8e0312156200020d578687fd5b620002188c620001ce565b9a506200022860208d01620001ce565b99506200023860408d01620001ce565b985060608c0151975060808c0151965060a08c0151955060c08c0151945060e08c015193506101008c015192506101208c015191506101408c015190509295989b509295989b9093969950565b6020808252601190820152701a5b9d985b1a59081cd85b1954dd185c9d607a1b604082015260600190565b60208082526015908201527f696e76616c6964206f776e657220616464726573730000000000000000000000604082015260600190565b60208082526015908201527f696e76616c696420746f6b656e20616464726573730000000000000000000000604082015260600190565b6020808252601a908201527f696e76616c696420647078546f6b656e73416c6c6f6361746564000000000000604082015260600190565b6020808252601b908201527f696e76616c69642072647078546f6b656e73416c6c6f63617465640000000000604082015260600190565b60208082526013908201527f696e76616c6964206d61784465706f7369747300000000000000000000000000604082015260600190565b602080825260119082015270696e76616c69642073616c65436c6f736560781b604082015260600190565b6113b280620003fe6000396000f3fe6080604052600436106101235760003560e01c806378317be7116100a0578063d16034d811610064578063d16034d814610421578063d6207c421461044e578063d6d0e6ed14610463578063f340fa0114610478578063fc7e286d1461048b576102a8565b806378317be7146103ad5780638da5cb5b146103cd578063ab0bcc41146103e2578063b4f2380c146103f7578063c3c5574a1461040c576102a8565b80633ccfd60b116100e75780633ccfd60b1461034457806343365f8c1461035b57806365302f6814610370578063672fc2dd1461038557806367c870cf1461039a576102a8565b80631e83409a146102ad5780631f9902f5146102e35780632eb4a7ab1461030557806332befd081461031a578063354d594b1461032f576102a8565b366102a857338061014f5760405162461bcd60e51b815260040161014690611109565b60405180910390fd5b6000341161016f5760405162461bcd60e51b81526004016101469061109b565b6007543460035461018091906112a6565b111561019e5760405162461bcd60e51b815260040161014690611132565b4260055411156101c05760405162461bcd60e51b815260040161014690611064565b6006544211156101e25760405162461bcd60e51b81526004016101469061103b565b6001600160a01b0381166000908152600d602052604090205461021157600a5461020d9060016104ab565b600a555b6001600160a01b0381166000908152600d602052604090205461023490346104ab565b6001600160a01b0382166000908152600d602052604090205560035461025a90346104ab565b6003556040516000906001600160a01b0383169033907fe6b914a63dc1d3f40b8ad81fcd4b6b7fcc015529c8f740a37c362a0d91a0b1769061029d903490610fdb565b60405180910390a450005b600080fd5b3480156102b957600080fd5b506102cd6102c8366004610e83565b6104be565b6040516102da9190610fdb565b60405180910390f35b3480156102ef57600080fd5b506102f86105f8565b6040516102da9190610fa3565b34801561031157600080fd5b506102cd610607565b34801561032657600080fd5b506102cd61060d565b34801561033b57600080fd5b506102cd610613565b34801561035057600080fd5b50610359610619565b005b34801561036757600080fd5b506102f86106ae565b34801561037c57600080fd5b506102cd6106bd565b34801561039157600080fd5b506102cd6106c3565b6103596103a8366004610ed5565b6106c9565b3480156103b957600080fd5b506102cd6103c8366004610e83565b610913565b3480156103d957600080fd5b506102f861095c565b3480156103ee57600080fd5b506102cd61096b565b34801561040357600080fd5b506102cd610971565b34801561041857600080fd5b506102cd610977565b34801561042d57600080fd5b5061044161043c366004610ebd565b61097d565b6040516102da9190610fd0565b34801561045a57600080fd5b506102cd6109be565b34801561046f57600080fd5b506102cd6109c4565b610359610486366004610e83565b6109ca565b34801561049757600080fd5b506102cd6104a6366004610e83565b610b49565b60006104b782846112a6565b9392505050565b6001600160a01b0381166000908152600d60205260408120546104f35760405162461bcd60e51b815260040161014690611017565b60065442116105145760405162461bcd60e51b815260040161014690611276565b6003546001600160a01b0383166000908152600d6020526040812054600854919261054b9290916105459190610b5b565b90610b67565b6001600160a01b038085166000908152600d602052604081208190555491925061057791168483610b73565b6105a583610592600a54600954610b6790919063ffffffff16565b6001546001600160a01b03169190610b73565b826001600160a01b0316336001600160a01b03167fe08b397913fb308a6f799d3059933c86ebc9c03957a83af3e932ea54e979e52a836040516105e89190610fdb565b60405180910390a390505b919050565b6001546001600160a01b031681565b600c5481565b600a5481565b60075481565b6002546001600160a01b031633146106435760405162461bcd60e51b815260040161014690611169565b604051303190339082156108fc029083906000818181858888f19350505050158015610673573d6000803e3d6000fd5b507fb2a3fd05447b0260cac7f8db72bfb10790a24739428c6d3abe439e09fcac37f9816040516106a39190610fdb565b60405180910390a150565b6000546001600160a01b031681565b60035481565b60095481565b6106d28461097d565b156106ef5760405162461bcd60e51b8152600401610146906111a0565b6001600160a01b0383166107155760405162461bcd60e51b815260040161014690611109565b6000341180156107275750600b543411155b6107435760405162461bcd60e51b81526004016101469061109b565b6007543460035461075491906112a6565b11156107725760405162461bcd60e51b815260040161014690611132565b4260045411156107945760405162461bcd60e51b815260040161014690611064565b6006544211156107b65760405162461bcd60e51b81526004016101469061103b565b600084846040516020016107cb929190610f83565b60405160208183030381529060405280519060200120905061082483838080602002602001604051908101604052809392919081815260200183836020028082843760009201919091525050600c549150849050610bce565b6108405760405162461bcd60e51b815260040161014690611205565b61084985610c89565b6001600160a01b0384166000908152600d602052604090205461087857600a546108749060016104ab565b600a555b6001600160a01b0384166000908152600d602052604090205461089b90346104ab565b6001600160a01b0385166000908152600d60205260409020556003546108c190346104ab565b6003556040516001906001600160a01b0386169033907fe6b914a63dc1d3f40b8ad81fcd4b6b7fcc015529c8f740a37c362a0d91a0b17690610904903490610fdb565b60405180910390a45050505050565b600060035460001415610928575060006105f3565b6003546001600160a01b0383166000908152600d602052604090205460085461095692916105459190610b5b565b92915050565b6002546001600160a01b031681565b60055481565b60085481565b60045481565b60008061098c610100846112be565b9050600061099c6101008561133c565b6000928352600e602052604090922054600190921b9182169091149392505050565b60065481565b600b5481565b6001600160a01b0381166109f05760405162461bcd60e51b815260040161014690611109565b60003411610a105760405162461bcd60e51b81526004016101469061109b565b60075434600354610a2191906112a6565b1115610a3f5760405162461bcd60e51b815260040161014690611132565b426005541115610a615760405162461bcd60e51b815260040161014690611064565b600654421115610a835760405162461bcd60e51b81526004016101469061103b565b6001600160a01b0381166000908152600d6020526040902054610ab257600a54610aae9060016104ab565b600a555b6001600160a01b0381166000908152600d6020526040902054610ad590346104ab565b6001600160a01b0382166000908152600d6020526040902055600354610afb90346104ab565b6003556040516000906001600160a01b0383169033907fe6b914a63dc1d3f40b8ad81fcd4b6b7fcc015529c8f740a37c362a0d91a0b17690610b3e903490610fdb565b60405180910390a450565b600d6020526000908152604090205481565b60006104b782846112d2565b60006104b782846112be565b610bc98363a9059cbb60e01b8484604051602401610b92929190610fb7565b60408051601f198184030181529190526020810180516001600160e01b03166001600160e01b031990931692909217909152610cc7565b505050565b600081815b8551811015610c7e576000868281518110610bfe57634e487b7160e01b600052603260045260246000fd5b60200260200101519050808311610c3f578281604051602001610c22929190610f59565b604051602081830303815290604052805190602001209250610c6b565b8083604051602001610c52929190610f59565b6040516020818303038152906040528051906020012092505b5080610c7681611321565b915050610bd3565b509092149392505050565b6000610c97610100836112be565b90506000610ca76101008461133c565b6000928352600e60205260409092208054600190931b9092179091555050565b6000610d1c826040518060400160405280602081526020017f5361666545524332303a206c6f772d6c6576656c2063616c6c206661696c6564815250856001600160a01b0316610d569092919063ffffffff16565b805190915015610bc95780806020019051810190610d3a9190610e9d565b610bc95760405162461bcd60e51b81526004016101469061122c565b6060610d658484600085610d6d565b949350505050565b606082471015610d8f5760405162461bcd60e51b8152600401610146906110c3565b610d9885610e2d565b610db45760405162461bcd60e51b8152600401610146906111ce565b600080866001600160a01b03168587604051610dd09190610f67565b60006040518083038185875af1925050503d8060008114610e0d576040519150601f19603f3d011682016040523d82523d6000602084013e610e12565b606091505b5091509150610e22828286610e33565b979650505050505050565b3b151590565b60608315610e425750816104b7565b825115610e525782518084602001fd5b8160405162461bcd60e51b81526004016101469190610fe4565b80356001600160a01b03811681146105f357600080fd5b600060208284031215610e94578081fd5b6104b782610e6c565b600060208284031215610eae578081fd5b815180151581146104b7578182fd5b600060208284031215610ece578081fd5b5035919050565b60008060008060608587031215610eea578283fd5b84359350610efa60208601610e6c565b9250604085013567ffffffffffffffff80821115610f16578384fd5b818701915087601f830112610f29578384fd5b813581811115610f37578485fd5b8860208083028501011115610f4a578485fd5b95989497505060200194505050565b918252602082015260400190565b60008251610f798184602087016112f1565b9190910192915050565b91825260601b6bffffffffffffffffffffffff1916602082015260340190565b6001600160a01b0391909116815260200190565b6001600160a01b03929092168252602082015260400190565b901515815260200190565b90815260200190565b60006020825282518060208401526110038160408501602087016112f1565b601f01601f19169190910160400192915050565b6020808252600a90820152691b9bc819195c1bdcda5d60b21b604082015260600190565b6020808252600f908201526e1cd85b19481a185cc818db1bdcd959608a1b604082015260600190565b60208082526017908201527f73616c65206861736e2774207374617274656420796574000000000000000000604082015260600190565b6020808252600e908201526d1a5b9d985b1a5908185b5bdd5b9d60921b604082015260600190565b60208082526026908201527f416464726573733a20696e73756666696369656e742062616c616e636520666f6040820152651c8818d85b1b60d21b606082015260800190565b6020808252600f908201526e696e76616c6964206164647265737360881b604082015260600190565b60208082526018908201527f6d6178696d756d206465706f7369747320726561636865640000000000000000604082015260600190565b60208082526017908201527f63616c6c6572206973206e6f7420746865206f776e6572000000000000000000604082015260600190565b60208082526014908201527319195c1bdcda5d08185b1c9958591e481d5cd95960621b604082015260600190565b6020808252601d908201527f416464726573733a2063616c6c20746f206e6f6e2d636f6e7472616374000000604082015260600190565b6020808252600d908201526c34b73b30b634b210383937b7b360991b604082015260600190565b6020808252602a908201527f5361666545524332303a204552433230206f7065726174696f6e20646964206e6040820152691bdd081cdd58d8d9595960b21b606082015260800190565b6020808252601690820152751cd85b19481a185cdb89dd0818db1bdcd959081e595d60521b604082015260600190565b600082198211156112b9576112b9611350565b500190565b6000826112cd576112cd611366565b500490565b60008160001904831182151516156112ec576112ec611350565b500290565b60005b8381101561130c5781810151838201526020016112f4565b8381111561131b576000848401525b50505050565b600060001982141561133557611335611350565b5060010190565b60008261134b5761134b611366565b500690565b634e487b7160e01b600052601160045260246000fd5b634e487b7160e01b600052601260045260246000fdfea2646970667358221220dd01b0963b2c0943ce067fda08f2f966b8d56940e53dcd68569ed98625c4604b64736f6c63430008000033",
          "opcodes": "PUSH1 0x80 PUSH1 0x40 MSTORE CALLVALUE DUP1 ISZERO PUSH3 0x11 JUMPI PUSH1 0x0 DUP1 REVERT JUMPDEST POP PUSH1 0x40 MLOAD PUSH3 0x17B0 CODESIZE SUB DUP1 PUSH3 0x17B0 DUP4 CODECOPY DUP2 ADD PUSH1 0x40 DUP2 SWAP1 MSTORE PUSH3 0x34 SWAP2 PUSH3 0x1EB JUMP JUMPDEST PUSH1 0x1 PUSH1 0x1 PUSH1 0xA0 SHL SUB DUP10 AND PUSH3 0x66 JUMPI PUSH1 0x40 MLOAD PUSH3 0x461BCD PUSH1 0xE5 SHL DUP2 MSTORE PUSH1 0x4 ADD PUSH3 0x5D SWAP1 PUSH3 0x2B0 JUMP JUMPDEST PUSH1 0x40 MLOAD DUP1 SWAP2 SUB SWAP1 REVERT JUMPDEST PUSH1 0x1 PUSH1 0x1 PUSH1 0xA0 SHL SUB DUP12 AND PUSH3 0x8F JUMPI PUSH1 0x40 MLOAD PUSH3 0x461BCD PUSH1 0xE5 SHL DUP2 MSTORE PUSH1 0x4 ADD PUSH3 0x5D SWAP1 PUSH3 0x2E7 JUMP JUMPDEST PUSH1 0x1 PUSH1 0x1 PUSH1 0xA0 SHL SUB DUP11 AND PUSH3 0xB8 JUMPI PUSH1 0x40 MLOAD PUSH3 0x461BCD PUSH1 0xE5 SHL DUP2 MSTORE PUSH1 0x4 ADD PUSH3 0x5D SWAP1 PUSH3 0x2E7 JUMP JUMPDEST TIMESTAMP DUP8 LT ISZERO PUSH3 0xDB JUMPI PUSH1 0x40 MLOAD PUSH3 0x461BCD PUSH1 0xE5 SHL DUP2 MSTORE PUSH1 0x4 ADD PUSH3 0x5D SWAP1 PUSH3 0x285 JUMP JUMPDEST DUP7 DUP7 GT PUSH3 0xFD JUMPI PUSH1 0x40 MLOAD PUSH3 0x461BCD PUSH1 0xE5 SHL DUP2 MSTORE PUSH1 0x4 ADD PUSH3 0x5D SWAP1 PUSH3 0x3C3 JUMP JUMPDEST PUSH1 0x0 DUP6 GT PUSH3 0x120 JUMPI PUSH1 0x40 MLOAD PUSH3 0x461BCD PUSH1 0xE5 SHL DUP2 MSTORE PUSH1 0x4 ADD PUSH3 0x5D SWAP1 PUSH3 0x38C JUMP JUMPDEST PUSH1 0x0 DUP5 GT PUSH3 0x143 JUMPI PUSH1 0x40 MLOAD PUSH3 0x461BCD PUSH1 0xE5 SHL DUP2 MSTORE PUSH1 0x4 ADD PUSH3 0x5D SWAP1 PUSH3 0x31E JUMP JUMPDEST PUSH1 0x0 DUP4 GT PUSH3 0x166 JUMPI PUSH1 0x40 MLOAD PUSH3 0x461BCD PUSH1 0xE5 SHL DUP2 MSTORE PUSH1 0x4 ADD PUSH3 0x5D SWAP1 PUSH3 0x355 JUMP JUMPDEST PUSH1 0x0 DUP1 SLOAD PUSH1 0x1 PUSH1 0x1 PUSH1 0xA0 SHL SUB NOT SWAP1 DUP2 AND PUSH1 0x1 PUSH1 0x1 PUSH1 0xA0 SHL SUB SWAP14 DUP15 AND OR SWAP1 SWAP2 SSTORE PUSH1 0x1 DUP1 SLOAD DUP3 AND SWAP12 DUP14 AND SWAP12 SWAP1 SWAP12 OR SWAP1 SWAP11 SSTORE PUSH1 0x2 DUP1 SLOAD SWAP1 SWAP11 AND SWAP9 SWAP1 SWAP11 AND SWAP8 SWAP1 SWAP8 OR SWAP1 SWAP8 SSTORE PUSH1 0x4 SWAP5 SWAP1 SWAP5 SSTORE PUSH1 0x5 SWAP3 SWAP1 SWAP3 SSTORE PUSH1 0x6 SSTORE PUSH1 0x7 SSTORE PUSH1 0x8 SSTORE PUSH1 0x9 SWAP2 SWAP1 SWAP2 SSTORE PUSH1 0xB SSTORE PUSH1 0xC SSTORE PUSH3 0x3EE JUMP JUMPDEST DUP1 MLOAD PUSH1 0x1 PUSH1 0x1 PUSH1 0xA0 SHL SUB DUP2 AND DUP2 EQ PUSH3 0x1E6 JUMPI PUSH1 0x0 DUP1 REVERT JUMPDEST SWAP2 SWAP1 POP JUMP JUMPDEST PUSH1 0x0 DUP1 PUSH1 0x0 DUP1 PUSH1 0x0 DUP1 PUSH1 0x0 DUP1 PUSH1 0x0 DUP1 PUSH1 0x0 PUSH2 0x160 DUP13 DUP15 SUB SLT ISZERO PUSH3 0x20D JUMPI DUP7 DUP8 REVERT JUMPDEST PUSH3 0x218 DUP13 PUSH3 0x1CE JUMP JUMPDEST SWAP11 POP PUSH3 0x228 PUSH1 0x20 DUP14 ADD PUSH3 0x1CE JUMP JUMPDEST SWAP10 POP PUSH3 0x238 PUSH1 0x40 DUP14 ADD PUSH3 0x1CE JUMP JUMPDEST SWAP9 POP PUSH1 0x60 DUP13 ADD MLOAD SWAP8 POP PUSH1 0x80 DUP13 ADD MLOAD SWAP7 POP PUSH1 0xA0 DUP13 ADD MLOAD SWAP6 POP PUSH1 0xC0 DUP13 ADD MLOAD SWAP5 POP PUSH1 0xE0 DUP13 ADD MLOAD SWAP4 POP PUSH2 0x100 DUP13 ADD MLOAD SWAP3 POP PUSH2 0x120 DUP13 ADD MLOAD SWAP2 POP PUSH2 0x140 DUP13 ADD MLOAD SWAP1 POP SWAP3 SWAP6 SWAP9 SWAP12 POP SWAP3 SWAP6 SWAP9 SWAP12 SWAP1 SWAP4 SWAP7 SWAP10 POP JUMP JUMPDEST PUSH1 0x20 DUP1 DUP3 MSTORE PUSH1 0x11 SWAP1 DUP3 ADD MSTORE PUSH17 0x1A5B9D985B1A59081CD85B1954DD185C9D PUSH1 0x7A SHL PUSH1 0x40 DUP3 ADD MSTORE PUSH1 0x60 ADD SWAP1 JUMP JUMPDEST PUSH1 0x20 DUP1 DUP3 MSTORE PUSH1 0x15 SWAP1 DUP3 ADD MSTORE PUSH32 0x696E76616C6964206F776E657220616464726573730000000000000000000000 PUSH1 0x40 DUP3 ADD MSTORE PUSH1 0x60 ADD SWAP1 JUMP JUMPDEST PUSH1 0x20 DUP1 DUP3 MSTORE PUSH1 0x15 SWAP1 DUP3 ADD MSTORE PUSH32 0x696E76616C696420746F6B656E20616464726573730000000000000000000000 PUSH1 0x40 DUP3 ADD MSTORE PUSH1 0x60 ADD SWAP1 JUMP JUMPDEST PUSH1 0x20 DUP1 DUP3 MSTORE PUSH1 0x1A SWAP1 DUP3 ADD MSTORE PUSH32 0x696E76616C696420647078546F6B656E73416C6C6F6361746564000000000000 PUSH1 0x40 DUP3 ADD MSTORE PUSH1 0x60 ADD SWAP1 JUMP JUMPDEST PUSH1 0x20 DUP1 DUP3 MSTORE PUSH1 0x1B SWAP1 DUP3 ADD MSTORE PUSH32 0x696E76616C69642072647078546F6B656E73416C6C6F63617465640000000000 PUSH1 0x40 DUP3 ADD MSTORE PUSH1 0x60 ADD SWAP1 JUMP JUMPDEST PUSH1 0x20 DUP1 DUP3 MSTORE PUSH1 0x13 SWAP1 DUP3 ADD MSTORE PUSH32 0x696E76616C6964206D61784465706F7369747300000000000000000000000000 PUSH1 0x40 DUP3 ADD MSTORE PUSH1 0x60 ADD SWAP1 JUMP JUMPDEST PUSH1 0x20 DUP1 DUP3 MSTORE PUSH1 0x11 SWAP1 DUP3 ADD MSTORE PUSH17 0x696E76616C69642073616C65436C6F7365 PUSH1 0x78 SHL PUSH1 0x40 DUP3 ADD MSTORE PUSH1 0x60 ADD SWAP1 JUMP JUMPDEST PUSH2 0x13B2 DUP1 PUSH3 0x3FE PUSH1 0x0 CODECOPY PUSH1 0x0 RETURN INVALID PUSH1 0x80 PUSH1 0x40 MSTORE PUSH1 0x4 CALLDATASIZE LT PUSH2 0x123 JUMPI PUSH1 0x0 CALLDATALOAD PUSH1 0xE0 SHR DUP1 PUSH4 0x78317BE7 GT PUSH2 0xA0 JUMPI DUP1 PUSH4 0xD16034D8 GT PUSH2 0x64 JUMPI DUP1 PUSH4 0xD16034D8 EQ PUSH2 0x421 JUMPI DUP1 PUSH4 0xD6207C42 EQ PUSH2 0x44E JUMPI DUP1 PUSH4 0xD6D0E6ED EQ PUSH2 0x463 JUMPI DUP1 PUSH4 0xF340FA01 EQ PUSH2 0x478 JUMPI DUP1 PUSH4 0xFC7E286D EQ PUSH2 0x48B JUMPI PUSH2 0x2A8 JUMP JUMPDEST DUP1 PUSH4 0x78317BE7 EQ PUSH2 0x3AD JUMPI DUP1 PUSH4 0x8DA5CB5B EQ PUSH2 0x3CD JUMPI DUP1 PUSH4 0xAB0BCC41 EQ PUSH2 0x3E2 JUMPI DUP1 PUSH4 0xB4F2380C EQ PUSH2 0x3F7 JUMPI DUP1 PUSH4 0xC3C5574A EQ PUSH2 0x40C JUMPI PUSH2 0x2A8 JUMP JUMPDEST DUP1 PUSH4 0x3CCFD60B GT PUSH2 0xE7 JUMPI DUP1 PUSH4 0x3CCFD60B EQ PUSH2 0x344 JUMPI DUP1 PUSH4 0x43365F8C EQ PUSH2 0x35B JUMPI DUP1 PUSH4 0x65302F68 EQ PUSH2 0x370 JUMPI DUP1 PUSH4 0x672FC2DD EQ PUSH2 0x385 JUMPI DUP1 PUSH4 0x67C870CF EQ PUSH2 0x39A JUMPI PUSH2 0x2A8 JUMP JUMPDEST DUP1 PUSH4 0x1E83409A EQ PUSH2 0x2AD JUMPI DUP1 PUSH4 0x1F9902F5 EQ PUSH2 0x2E3 JUMPI DUP1 PUSH4 0x2EB4A7AB EQ PUSH2 0x305 JUMPI DUP1 PUSH4 0x32BEFD08 EQ PUSH2 0x31A JUMPI DUP1 PUSH4 0x354D594B EQ PUSH2 0x32F JUMPI PUSH2 0x2A8 JUMP JUMPDEST CALLDATASIZE PUSH2 0x2A8 JUMPI CALLER DUP1 PUSH2 0x14F JUMPI PUSH1 0x40 MLOAD PUSH3 0x461BCD PUSH1 0xE5 SHL DUP2 MSTORE PUSH1 0x4 ADD PUSH2 0x146 SWAP1 PUSH2 0x1109 JUMP JUMPDEST PUSH1 0x40 MLOAD DUP1 SWAP2 SUB SWAP1 REVERT JUMPDEST PUSH1 0x0 CALLVALUE GT PUSH2 0x16F JUMPI PUSH1 0x40 MLOAD PUSH3 0x461BCD PUSH1 0xE5 SHL DUP2 MSTORE PUSH1 0x4 ADD PUSH2 0x146 SWAP1 PUSH2 0x109B JUMP JUMPDEST PUSH1 0x7 SLOAD CALLVALUE PUSH1 0x3 SLOAD PUSH2 0x180 SWAP2 SWAP1 PUSH2 0x12A6 JUMP JUMPDEST GT ISZERO PUSH2 0x19E JUMPI PUSH1 0x40 MLOAD PUSH3 0x461BCD PUSH1 0xE5 SHL DUP2 MSTORE PUSH1 0x4 ADD PUSH2 0x146 SWAP1 PUSH2 0x1132 JUMP JUMPDEST TIMESTAMP PUSH1 0x5 SLOAD GT ISZERO PUSH2 0x1C0 JUMPI PUSH1 0x40 MLOAD PUSH3 0x461BCD PUSH1 0xE5 SHL DUP2 MSTORE PUSH1 0x4 ADD PUSH2 0x146 SWAP1 PUSH2 0x1064 JUMP JUMPDEST PUSH1 0x6 SLOAD TIMESTAMP GT ISZERO PUSH2 0x1E2 JUMPI PUSH1 0x40 MLOAD PUSH3 0x461BCD PUSH1 0xE5 SHL DUP2 MSTORE PUSH1 0x4 ADD PUSH2 0x146 SWAP1 PUSH2 0x103B JUMP JUMPDEST PUSH1 0x1 PUSH1 0x1 PUSH1 0xA0 SHL SUB DUP2 AND PUSH1 0x0 SWAP1 DUP2 MSTORE PUSH1 0xD PUSH1 0x20 MSTORE PUSH1 0x40 SWAP1 KECCAK256 SLOAD PUSH2 0x211 JUMPI PUSH1 0xA SLOAD PUSH2 0x20D SWAP1 PUSH1 0x1 PUSH2 0x4AB JUMP JUMPDEST PUSH1 0xA SSTORE JUMPDEST PUSH1 0x1 PUSH1 0x1 PUSH1 0xA0 SHL SUB DUP2 AND PUSH1 0x0 SWAP1 DUP2 MSTORE PUSH1 0xD PUSH1 0x20 MSTORE PUSH1 0x40 SWAP1 KECCAK256 SLOAD PUSH2 0x234 SWAP1 CALLVALUE PUSH2 0x4AB JUMP JUMPDEST PUSH1 0x1 PUSH1 0x1 PUSH1 0xA0 SHL SUB DUP3 AND PUSH1 0x0 SWAP1 DUP2 MSTORE PUSH1 0xD PUSH1 0x20 MSTORE PUSH1 0x40 SWAP1 KECCAK256 SSTORE PUSH1 0x3 SLOAD PUSH2 0x25A SWAP1 CALLVALUE PUSH2 0x4AB JUMP JUMPDEST PUSH1 0x3 SSTORE PUSH1 0x40 MLOAD PUSH1 0x0 SWAP1 PUSH1 0x1 PUSH1 0x1 PUSH1 0xA0 SHL SUB DUP4 AND SWAP1 CALLER SWAP1 PUSH32 0xE6B914A63DC1D3F40B8AD81FCD4B6B7FCC015529C8F740A37C362A0D91A0B176 SWAP1 PUSH2 0x29D SWAP1 CALLVALUE SWAP1 PUSH2 0xFDB JUMP JUMPDEST PUSH1 0x40 MLOAD DUP1 SWAP2 SUB SWAP1 LOG4 POP STOP JUMPDEST PUSH1 0x0 DUP1 REVERT JUMPDEST CALLVALUE DUP1 ISZERO PUSH2 0x2B9 JUMPI PUSH1 0x0 DUP1 REVERT JUMPDEST POP PUSH2 0x2CD PUSH2 0x2C8 CALLDATASIZE PUSH1 0x4 PUSH2 0xE83 JUMP JUMPDEST PUSH2 0x4BE JUMP JUMPDEST PUSH1 0x40 MLOAD PUSH2 0x2DA SWAP2 SWAP1 PUSH2 0xFDB JUMP JUMPDEST PUSH1 0x40 MLOAD DUP1 SWAP2 SUB SWAP1 RETURN JUMPDEST CALLVALUE DUP1 ISZERO PUSH2 0x2EF JUMPI PUSH1 0x0 DUP1 REVERT JUMPDEST POP PUSH2 0x2F8 PUSH2 0x5F8 JUMP JUMPDEST PUSH1 0x40 MLOAD PUSH2 0x2DA SWAP2 SWAP1 PUSH2 0xFA3 JUMP JUMPDEST CALLVALUE DUP1 ISZERO PUSH2 0x311 JUMPI PUSH1 0x0 DUP1 REVERT JUMPDEST POP PUSH2 0x2CD PUSH2 0x607 JUMP JUMPDEST CALLVALUE DUP1 ISZERO PUSH2 0x326 JUMPI PUSH1 0x0 DUP1 REVERT JUMPDEST POP PUSH2 0x2CD PUSH2 0x60D JUMP JUMPDEST CALLVALUE DUP1 ISZERO PUSH2 0x33B JUMPI PUSH1 0x0 DUP1 REVERT JUMPDEST POP PUSH2 0x2CD PUSH2 0x613 JUMP JUMPDEST CALLVALUE DUP1 ISZERO PUSH2 0x350 JUMPI PUSH1 0x0 DUP1 REVERT JUMPDEST POP PUSH2 0x359 PUSH2 0x619 JUMP JUMPDEST STOP JUMPDEST CALLVALUE DUP1 ISZERO PUSH2 0x367 JUMPI PUSH1 0x0 DUP1 REVERT JUMPDEST POP PUSH2 0x2F8 PUSH2 0x6AE JUMP JUMPDEST CALLVALUE DUP1 ISZERO PUSH2 0x37C JUMPI PUSH1 0x0 DUP1 REVERT JUMPDEST POP PUSH2 0x2CD PUSH2 0x6BD JUMP JUMPDEST CALLVALUE DUP1 ISZERO PUSH2 0x391 JUMPI PUSH1 0x0 DUP1 REVERT JUMPDEST POP PUSH2 0x2CD PUSH2 0x6C3 JUMP JUMPDEST PUSH2 0x359 PUSH2 0x3A8 CALLDATASIZE PUSH1 0x4 PUSH2 0xED5 JUMP JUMPDEST PUSH2 0x6C9 JUMP JUMPDEST CALLVALUE DUP1 ISZERO PUSH2 0x3B9 JUMPI PUSH1 0x0 DUP1 REVERT JUMPDEST POP PUSH2 0x2CD PUSH2 0x3C8 CALLDATASIZE PUSH1 0x4 PUSH2 0xE83 JUMP JUMPDEST PUSH2 0x913 JUMP JUMPDEST CALLVALUE DUP1 ISZERO PUSH2 0x3D9 JUMPI PUSH1 0x0 DUP1 REVERT JUMPDEST POP PUSH2 0x2F8 PUSH2 0x95C JUMP JUMPDEST CALLVALUE DUP1 ISZERO PUSH2 0x3EE JUMPI PUSH1 0x0 DUP1 REVERT JUMPDEST POP PUSH2 0x2CD PUSH2 0x96B JUMP JUMPDEST CALLVALUE DUP1 ISZERO PUSH2 0x403 JUMPI PUSH1 0x0 DUP1 REVERT JUMPDEST POP PUSH2 0x2CD PUSH2 0x971 JUMP JUMPDEST CALLVALUE DUP1 ISZERO PUSH2 0x418 JUMPI PUSH1 0x0 DUP1 REVERT JUMPDEST POP PUSH2 0x2CD PUSH2 0x977 JUMP JUMPDEST CALLVALUE DUP1 ISZERO PUSH2 0x42D JUMPI PUSH1 0x0 DUP1 REVERT JUMPDEST POP PUSH2 0x441 PUSH2 0x43C CALLDATASIZE PUSH1 0x4 PUSH2 0xEBD JUMP JUMPDEST PUSH2 0x97D JUMP JUMPDEST PUSH1 0x40 MLOAD PUSH2 0x2DA SWAP2 SWAP1 PUSH2 0xFD0 JUMP JUMPDEST CALLVALUE DUP1 ISZERO PUSH2 0x45A JUMPI PUSH1 0x0 DUP1 REVERT JUMPDEST POP PUSH2 0x2CD PUSH2 0x9BE JUMP JUMPDEST CALLVALUE DUP1 ISZERO PUSH2 0x46F JUMPI PUSH1 0x0 DUP1 REVERT JUMPDEST POP PUSH2 0x2CD PUSH2 0x9C4 JUMP JUMPDEST PUSH2 0x359 PUSH2 0x486 CALLDATASIZE PUSH1 0x4 PUSH2 0xE83 JUMP JUMPDEST PUSH2 0x9CA JUMP JUMPDEST CALLVALUE DUP1 ISZERO PUSH2 0x497 JUMPI PUSH1 0x0 DUP1 REVERT JUMPDEST POP PUSH2 0x2CD PUSH2 0x4A6 CALLDATASIZE PUSH1 0x4 PUSH2 0xE83 JUMP JUMPDEST PUSH2 0xB49 JUMP JUMPDEST PUSH1 0x0 PUSH2 0x4B7 DUP3 DUP5 PUSH2 0x12A6 JUMP JUMPDEST SWAP4 SWAP3 POP POP POP JUMP JUMPDEST PUSH1 0x1 PUSH1 0x1 PUSH1 0xA0 SHL SUB DUP2 AND PUSH1 0x0 SWAP1 DUP2 MSTORE PUSH1 0xD PUSH1 0x20 MSTORE PUSH1 0x40 DUP2 KECCAK256 SLOAD PUSH2 0x4F3 JUMPI PUSH1 0x40 MLOAD PUSH3 0x461BCD PUSH1 0xE5 SHL DUP2 MSTORE PUSH1 0x4 ADD PUSH2 0x146 SWAP1 PUSH2 0x1017 JUMP JUMPDEST PUSH1 0x6 SLOAD TIMESTAMP GT PUSH2 0x514 JUMPI PUSH1 0x40 MLOAD PUSH3 0x461BCD PUSH1 0xE5 SHL DUP2 MSTORE PUSH1 0x4 ADD PUSH2 0x146 SWAP1 PUSH2 0x1276 JUMP JUMPDEST PUSH1 0x3 SLOAD PUSH1 0x1 PUSH1 0x1 PUSH1 0xA0 SHL SUB DUP4 AND PUSH1 0x0 SWAP1 DUP2 MSTORE PUSH1 0xD PUSH1 0x20 MSTORE PUSH1 0x40 DUP2 KECCAK256 SLOAD PUSH1 0x8 SLOAD SWAP2 SWAP3 PUSH2 0x54B SWAP3 SWAP1 SWAP2 PUSH2 0x545 SWAP2 SWAP1 PUSH2 0xB5B JUMP JUMPDEST SWAP1 PUSH2 0xB67 JUMP JUMPDEST PUSH1 0x1 PUSH1 0x1 PUSH1 0xA0 SHL SUB DUP1 DUP6 AND PUSH1 0x0 SWAP1 DUP2 MSTORE PUSH1 0xD PUSH1 0x20 MSTORE PUSH1 0x40 DUP2 KECCAK256 DUP2 SWAP1 SSTORE SLOAD SWAP2 SWAP3 POP PUSH2 0x577 SWAP2 AND DUP5 DUP4 PUSH2 0xB73 JUMP JUMPDEST PUSH2 0x5A5 DUP4 PUSH2 0x592 PUSH1 0xA SLOAD PUSH1 0x9 SLOAD PUSH2 0xB67 SWAP1 SWAP2 SWAP1 PUSH4 0xFFFFFFFF AND JUMP JUMPDEST PUSH1 0x1 SLOAD PUSH1 0x1 PUSH1 0x1 PUSH1 0xA0 SHL SUB AND SWAP2 SWAP1 PUSH2 0xB73 JUMP JUMPDEST DUP3 PUSH1 0x1 PUSH1 0x1 PUSH1 0xA0 SHL SUB AND CALLER PUSH1 0x1 PUSH1 0x1 PUSH1 0xA0 SHL SUB AND PUSH32 0xE08B397913FB308A6F799D3059933C86EBC9C03957A83AF3E932EA54E979E52A DUP4 PUSH1 0x40 MLOAD PUSH2 0x5E8 SWAP2 SWAP1 PUSH2 0xFDB JUMP JUMPDEST PUSH1 0x40 MLOAD DUP1 SWAP2 SUB SWAP1 LOG3 SWAP1 POP JUMPDEST SWAP2 SWAP1 POP JUMP JUMPDEST PUSH1 0x1 SLOAD PUSH1 0x1 PUSH1 0x1 PUSH1 0xA0 SHL SUB AND DUP2 JUMP JUMPDEST PUSH1 0xC SLOAD DUP2 JUMP JUMPDEST PUSH1 0xA SLOAD DUP2 JUMP JUMPDEST PUSH1 0x7 SLOAD DUP2 JUMP JUMPDEST PUSH1 0x2 SLOAD PUSH1 0x1 PUSH1 0x1 PUSH1 0xA0 SHL SUB AND CALLER EQ PUSH2 0x643 JUMPI PUSH1 0x40 MLOAD PUSH3 0x461BCD PUSH1 0xE5 SHL DUP2 MSTORE PUSH1 0x4 ADD PUSH2 0x146 SWAP1 PUSH2 0x1169 JUMP JUMPDEST PUSH1 0x40 MLOAD ADDRESS BALANCE SWAP1 CALLER SWAP1 DUP3 ISZERO PUSH2 0x8FC MUL SWAP1 DUP4 SWAP1 PUSH1 0x0 DUP2 DUP2 DUP2 DUP6 DUP9 DUP9 CALL SWAP4 POP POP POP POP ISZERO DUP1 ISZERO PUSH2 0x673 JUMPI RETURNDATASIZE PUSH1 0x0 DUP1 RETURNDATACOPY RETURNDATASIZE PUSH1 0x0 REVERT JUMPDEST POP PUSH32 0xB2A3FD05447B0260CAC7F8DB72BFB10790A24739428C6D3ABE439E09FCAC37F9 DUP2 PUSH1 0x40 MLOAD PUSH2 0x6A3 SWAP2 SWAP1 PUSH2 0xFDB JUMP JUMPDEST PUSH1 0x40 MLOAD DUP1 SWAP2 SUB SWAP1 LOG1 POP JUMP JUMPDEST PUSH1 0x0 SLOAD PUSH1 0x1 PUSH1 0x1 PUSH1 0xA0 SHL SUB AND DUP2 JUMP JUMPDEST PUSH1 0x3 SLOAD DUP2 JUMP JUMPDEST PUSH1 0x9 SLOAD DUP2 JUMP JUMPDEST PUSH2 0x6D2 DUP5 PUSH2 0x97D JUMP JUMPDEST ISZERO PUSH2 0x6EF JUMPI PUSH1 0x40 MLOAD PUSH3 0x461BCD PUSH1 0xE5 SHL DUP2 MSTORE PUSH1 0x4 ADD PUSH2 0x146 SWAP1 PUSH2 0x11A0 JUMP JUMPDEST PUSH1 0x1 PUSH1 0x1 PUSH1 0xA0 SHL SUB DUP4 AND PUSH2 0x715 JUMPI PUSH1 0x40 MLOAD PUSH3 0x461BCD PUSH1 0xE5 SHL DUP2 MSTORE PUSH1 0x4 ADD PUSH2 0x146 SWAP1 PUSH2 0x1109 JUMP JUMPDEST PUSH1 0x0 CALLVALUE GT DUP1 ISZERO PUSH2 0x727 JUMPI POP PUSH1 0xB SLOAD CALLVALUE GT ISZERO JUMPDEST PUSH2 0x743 JUMPI PUSH1 0x40 MLOAD PUSH3 0x461BCD PUSH1 0xE5 SHL DUP2 MSTORE PUSH1 0x4 ADD PUSH2 0x146 SWAP1 PUSH2 0x109B JUMP JUMPDEST PUSH1 0x7 SLOAD CALLVALUE PUSH1 0x3 SLOAD PUSH2 0x754 SWAP2 SWAP1 PUSH2 0x12A6 JUMP JUMPDEST GT ISZERO PUSH2 0x772 JUMPI PUSH1 0x40 MLOAD PUSH3 0x461BCD PUSH1 0xE5 SHL DUP2 MSTORE PUSH1 0x4 ADD PUSH2 0x146 SWAP1 PUSH2 0x1132 JUMP JUMPDEST TIMESTAMP PUSH1 0x4 SLOAD GT ISZERO PUSH2 0x794 JUMPI PUSH1 0x40 MLOAD PUSH3 0x461BCD PUSH1 0xE5 SHL DUP2 MSTORE PUSH1 0x4 ADD PUSH2 0x146 SWAP1 PUSH2 0x1064 JUMP JUMPDEST PUSH1 0x6 SLOAD TIMESTAMP GT ISZERO PUSH2 0x7B6 JUMPI PUSH1 0x40 MLOAD PUSH3 0x461BCD PUSH1 0xE5 SHL DUP2 MSTORE PUSH1 0x4 ADD PUSH2 0x146 SWAP1 PUSH2 0x103B JUMP JUMPDEST PUSH1 0x0 DUP5 DUP5 PUSH1 0x40 MLOAD PUSH1 0x20 ADD PUSH2 0x7CB SWAP3 SWAP2 SWAP1 PUSH2 0xF83 JUMP JUMPDEST PUSH1 0x40 MLOAD PUSH1 0x20 DUP2 DUP4 SUB SUB DUP2 MSTORE SWAP1 PUSH1 0x40 MSTORE DUP1 MLOAD SWAP1 PUSH1 0x20 ADD KECCAK256 SWAP1 POP PUSH2 0x824 DUP4 DUP4 DUP1 DUP1 PUSH1 0x20 MUL PUSH1 0x20 ADD PUSH1 0x40 MLOAD SWAP1 DUP2 ADD PUSH1 0x40 MSTORE DUP1 SWAP4 SWAP3 SWAP2 SWAP1 DUP2 DUP2 MSTORE PUSH1 0x20 ADD DUP4 DUP4 PUSH1 0x20 MUL DUP1 DUP3 DUP5 CALLDATACOPY PUSH1 0x0 SWAP3 ADD SWAP2 SWAP1 SWAP2 MSTORE POP POP PUSH1 0xC SLOAD SWAP2 POP DUP5 SWAP1 POP PUSH2 0xBCE JUMP JUMPDEST PUSH2 0x840 JUMPI PUSH1 0x40 MLOAD PUSH3 0x461BCD PUSH1 0xE5 SHL DUP2 MSTORE PUSH1 0x4 ADD PUSH2 0x146 SWAP1 PUSH2 0x1205 JUMP JUMPDEST PUSH2 0x849 DUP6 PUSH2 0xC89 JUMP JUMPDEST PUSH1 0x1 PUSH1 0x1 PUSH1 0xA0 SHL SUB DUP5 AND PUSH1 0x0 SWAP1 DUP2 MSTORE PUSH1 0xD PUSH1 0x20 MSTORE PUSH1 0x40 SWAP1 KECCAK256 SLOAD PUSH2 0x878 JUMPI PUSH1 0xA SLOAD PUSH2 0x874 SWAP1 PUSH1 0x1 PUSH2 0x4AB JUMP JUMPDEST PUSH1 0xA SSTORE JUMPDEST PUSH1 0x1 PUSH1 0x1 PUSH1 0xA0 SHL SUB DUP5 AND PUSH1 0x0 SWAP1 DUP2 MSTORE PUSH1 0xD PUSH1 0x20 MSTORE PUSH1 0x40 SWAP1 KECCAK256 SLOAD PUSH2 0x89B SWAP1 CALLVALUE PUSH2 0x4AB JUMP JUMPDEST PUSH1 0x1 PUSH1 0x1 PUSH1 0xA0 SHL SUB DUP6 AND PUSH1 0x0 SWAP1 DUP2 MSTORE PUSH1 0xD PUSH1 0x20 MSTORE PUSH1 0x40 SWAP1 KECCAK256 SSTORE PUSH1 0x3 SLOAD PUSH2 0x8C1 SWAP1 CALLVALUE PUSH2 0x4AB JUMP JUMPDEST PUSH1 0x3 SSTORE PUSH1 0x40 MLOAD PUSH1 0x1 SWAP1 PUSH1 0x1 PUSH1 0x1 PUSH1 0xA0 SHL SUB DUP7 AND SWAP1 CALLER SWAP1 PUSH32 0xE6B914A63DC1D3F40B8AD81FCD4B6B7FCC015529C8F740A37C362A0D91A0B176 SWAP1 PUSH2 0x904 SWAP1 CALLVALUE SWAP1 PUSH2 0xFDB JUMP JUMPDEST PUSH1 0x40 MLOAD DUP1 SWAP2 SUB SWAP1 LOG4 POP POP POP POP POP JUMP JUMPDEST PUSH1 0x0 PUSH1 0x3 SLOAD PUSH1 0x0 EQ ISZERO PUSH2 0x928 JUMPI POP PUSH1 0x0 PUSH2 0x5F3 JUMP JUMPDEST PUSH1 0x3 SLOAD PUSH1 0x1 PUSH1 0x1 PUSH1 0xA0 SHL SUB DUP4 AND PUSH1 0x0 SWAP1 DUP2 MSTORE PUSH1 0xD PUSH1 0x20 MSTORE PUSH1 0x40 SWAP1 KECCAK256 SLOAD PUSH1 0x8 SLOAD PUSH2 0x956 SWAP3 SWAP2 PUSH2 0x545 SWAP2 SWAP1 PUSH2 0xB5B JUMP JUMPDEST SWAP3 SWAP2 POP POP JUMP JUMPDEST PUSH1 0x2 SLOAD PUSH1 0x1 PUSH1 0x1 PUSH1 0xA0 SHL SUB AND DUP2 JUMP JUMPDEST PUSH1 0x5 SLOAD DUP2 JUMP JUMPDEST PUSH1 0x8 SLOAD DUP2 JUMP JUMPDEST PUSH1 0x4 SLOAD DUP2 JUMP JUMPDEST PUSH1 0x0 DUP1 PUSH2 0x98C PUSH2 0x100 DUP5 PUSH2 0x12BE JUMP JUMPDEST SWAP1 POP PUSH1 0x0 PUSH2 0x99C PUSH2 0x100 DUP6 PUSH2 0x133C JUMP JUMPDEST PUSH1 0x0 SWAP3 DUP4 MSTORE PUSH1 0xE PUSH1 0x20 MSTORE PUSH1 0x40 SWAP1 SWAP3 KECCAK256 SLOAD PUSH1 0x1 SWAP1 SWAP3 SHL SWAP2 DUP3 AND SWAP1 SWAP2 EQ SWAP4 SWAP3 POP POP POP JUMP JUMPDEST PUSH1 0x6 SLOAD DUP2 JUMP JUMPDEST PUSH1 0xB SLOAD DUP2 JUMP JUMPDEST PUSH1 0x1 PUSH1 0x1 PUSH1 0xA0 SHL SUB DUP2 AND PUSH2 0x9F0 JUMPI PUSH1 0x40 MLOAD PUSH3 0x461BCD PUSH1 0xE5 SHL DUP2 MSTORE PUSH1 0x4 ADD PUSH2 0x146 SWAP1 PUSH2 0x1109 JUMP JUMPDEST PUSH1 0x0 CALLVALUE GT PUSH2 0xA10 JUMPI PUSH1 0x40 MLOAD PUSH3 0x461BCD PUSH1 0xE5 SHL DUP2 MSTORE PUSH1 0x4 ADD PUSH2 0x146 SWAP1 PUSH2 0x109B JUMP JUMPDEST PUSH1 0x7 SLOAD CALLVALUE PUSH1 0x3 SLOAD PUSH2 0xA21 SWAP2 SWAP1 PUSH2 0x12A6 JUMP JUMPDEST GT ISZERO PUSH2 0xA3F JUMPI PUSH1 0x40 MLOAD PUSH3 0x461BCD PUSH1 0xE5 SHL DUP2 MSTORE PUSH1 0x4 ADD PUSH2 0x146 SWAP1 PUSH2 0x1132 JUMP JUMPDEST TIMESTAMP PUSH1 0x5 SLOAD GT ISZERO PUSH2 0xA61 JUMPI PUSH1 0x40 MLOAD PUSH3 0x461BCD PUSH1 0xE5 SHL DUP2 MSTORE PUSH1 0x4 ADD PUSH2 0x146 SWAP1 PUSH2 0x1064 JUMP JUMPDEST PUSH1 0x6 SLOAD TIMESTAMP GT ISZERO PUSH2 0xA83 JUMPI PUSH1 0x40 MLOAD PUSH3 0x461BCD PUSH1 0xE5 SHL DUP2 MSTORE PUSH1 0x4 ADD PUSH2 0x146 SWAP1 PUSH2 0x103B JUMP JUMPDEST PUSH1 0x1 PUSH1 0x1 PUSH1 0xA0 SHL SUB DUP2 AND PUSH1 0x0 SWAP1 DUP2 MSTORE PUSH1 0xD PUSH1 0x20 MSTORE PUSH1 0x40 SWAP1 KECCAK256 SLOAD PUSH2 0xAB2 JUMPI PUSH1 0xA SLOAD PUSH2 0xAAE SWAP1 PUSH1 0x1 PUSH2 0x4AB JUMP JUMPDEST PUSH1 0xA SSTORE JUMPDEST PUSH1 0x1 PUSH1 0x1 PUSH1 0xA0 SHL SUB DUP2 AND PUSH1 0x0 SWAP1 DUP2 MSTORE PUSH1 0xD PUSH1 0x20 MSTORE PUSH1 0x40 SWAP1 KECCAK256 SLOAD PUSH2 0xAD5 SWAP1 CALLVALUE PUSH2 0x4AB JUMP JUMPDEST PUSH1 0x1 PUSH1 0x1 PUSH1 0xA0 SHL SUB DUP3 AND PUSH1 0x0 SWAP1 DUP2 MSTORE PUSH1 0xD PUSH1 0x20 MSTORE PUSH1 0x40 SWAP1 KECCAK256 SSTORE PUSH1 0x3 SLOAD PUSH2 0xAFB SWAP1 CALLVALUE PUSH2 0x4AB JUMP JUMPDEST PUSH1 0x3 SSTORE PUSH1 0x40 MLOAD PUSH1 0x0 SWAP1 PUSH1 0x1 PUSH1 0x1 PUSH1 0xA0 SHL SUB DUP4 AND SWAP1 CALLER SWAP1 PUSH32 0xE6B914A63DC1D3F40B8AD81FCD4B6B7FCC015529C8F740A37C362A0D91A0B176 SWAP1 PUSH2 0xB3E SWAP1 CALLVALUE SWAP1 PUSH2 0xFDB JUMP JUMPDEST PUSH1 0x40 MLOAD DUP1 SWAP2 SUB SWAP1 LOG4 POP JUMP JUMPDEST PUSH1 0xD PUSH1 0x20 MSTORE PUSH1 0x0 SWAP1 DUP2 MSTORE PUSH1 0x40 SWAP1 KECCAK256 SLOAD DUP2 JUMP JUMPDEST PUSH1 0x0 PUSH2 0x4B7 DUP3 DUP5 PUSH2 0x12D2 JUMP JUMPDEST PUSH1 0x0 PUSH2 0x4B7 DUP3 DUP5 PUSH2 0x12BE JUMP JUMPDEST PUSH2 0xBC9 DUP4 PUSH4 0xA9059CBB PUSH1 0xE0 SHL DUP5 DUP5 PUSH1 0x40 MLOAD PUSH1 0x24 ADD PUSH2 0xB92 SWAP3 SWAP2 SWAP1 PUSH2 0xFB7 JUMP JUMPDEST PUSH1 0x40 DUP1 MLOAD PUSH1 0x1F NOT DUP2 DUP5 SUB ADD DUP2 MSTORE SWAP2 SWAP1 MSTORE PUSH1 0x20 DUP2 ADD DUP1 MLOAD PUSH1 0x1 PUSH1 0x1 PUSH1 0xE0 SHL SUB AND PUSH1 0x1 PUSH1 0x1 PUSH1 0xE0 SHL SUB NOT SWAP1 SWAP4 AND SWAP3 SWAP1 SWAP3 OR SWAP1 SWAP2 MSTORE PUSH2 0xCC7 JUMP JUMPDEST POP POP POP JUMP JUMPDEST PUSH1 0x0 DUP2 DUP2 JUMPDEST DUP6 MLOAD DUP2 LT ISZERO PUSH2 0xC7E JUMPI PUSH1 0x0 DUP7 DUP3 DUP2 MLOAD DUP2 LT PUSH2 0xBFE JUMPI PUSH4 0x4E487B71 PUSH1 0xE0 SHL PUSH1 0x0 MSTORE PUSH1 0x32 PUSH1 0x4 MSTORE PUSH1 0x24 PUSH1 0x0 REVERT JUMPDEST PUSH1 0x20 MUL PUSH1 0x20 ADD ADD MLOAD SWAP1 POP DUP1 DUP4 GT PUSH2 0xC3F JUMPI DUP3 DUP2 PUSH1 0x40 MLOAD PUSH1 0x20 ADD PUSH2 0xC22 SWAP3 SWAP2 SWAP1 PUSH2 0xF59 JUMP JUMPDEST PUSH1 0x40 MLOAD PUSH1 0x20 DUP2 DUP4 SUB SUB DUP2 MSTORE SWAP1 PUSH1 0x40 MSTORE DUP1 MLOAD SWAP1 PUSH1 0x20 ADD KECCAK256 SWAP3 POP PUSH2 0xC6B JUMP JUMPDEST DUP1 DUP4 PUSH1 0x40 MLOAD PUSH1 0x20 ADD PUSH2 0xC52 SWAP3 SWAP2 SWAP1 PUSH2 0xF59 JUMP JUMPDEST PUSH1 0x40 MLOAD PUSH1 0x20 DUP2 DUP4 SUB SUB DUP2 MSTORE SWAP1 PUSH1 0x40 MSTORE DUP1 MLOAD SWAP1 PUSH1 0x20 ADD KECCAK256 SWAP3 POP JUMPDEST POP DUP1 PUSH2 0xC76 DUP2 PUSH2 0x1321 JUMP JUMPDEST SWAP2 POP POP PUSH2 0xBD3 JUMP JUMPDEST POP SWAP1 SWAP3 EQ SWAP4 SWAP3 POP POP POP JUMP JUMPDEST PUSH1 0x0 PUSH2 0xC97 PUSH2 0x100 DUP4 PUSH2 0x12BE JUMP JUMPDEST SWAP1 POP PUSH1 0x0 PUSH2 0xCA7 PUSH2 0x100 DUP5 PUSH2 0x133C JUMP JUMPDEST PUSH1 0x0 SWAP3 DUP4 MSTORE PUSH1 0xE PUSH1 0x20 MSTORE PUSH1 0x40 SWAP1 SWAP3 KECCAK256 DUP1 SLOAD PUSH1 0x1 SWAP1 SWAP4 SHL SWAP1 SWAP3 OR SWAP1 SWAP2 SSTORE POP POP JUMP JUMPDEST PUSH1 0x0 PUSH2 0xD1C DUP3 PUSH1 0x40 MLOAD DUP1 PUSH1 0x40 ADD PUSH1 0x40 MSTORE DUP1 PUSH1 0x20 DUP2 MSTORE PUSH1 0x20 ADD PUSH32 0x5361666545524332303A206C6F772D6C6576656C2063616C6C206661696C6564 DUP2 MSTORE POP DUP6 PUSH1 0x1 PUSH1 0x1 PUSH1 0xA0 SHL SUB AND PUSH2 0xD56 SWAP1 SWAP3 SWAP2 SWAP1 PUSH4 0xFFFFFFFF AND JUMP JUMPDEST DUP1 MLOAD SWAP1 SWAP2 POP ISZERO PUSH2 0xBC9 JUMPI DUP1 DUP1 PUSH1 0x20 ADD SWAP1 MLOAD DUP2 ADD SWAP1 PUSH2 0xD3A SWAP2 SWAP1 PUSH2 0xE9D JUMP JUMPDEST PUSH2 0xBC9 JUMPI PUSH1 0x40 MLOAD PUSH3 0x461BCD PUSH1 0xE5 SHL DUP2 MSTORE PUSH1 0x4 ADD PUSH2 0x146 SWAP1 PUSH2 0x122C JUMP JUMPDEST PUSH1 0x60 PUSH2 0xD65 DUP5 DUP5 PUSH1 0x0 DUP6 PUSH2 0xD6D JUMP JUMPDEST SWAP5 SWAP4 POP POP POP POP JUMP JUMPDEST PUSH1 0x60 DUP3 SELFBALANCE LT ISZERO PUSH2 0xD8F JUMPI PUSH1 0x40 MLOAD PUSH3 0x461BCD PUSH1 0xE5 SHL DUP2 MSTORE PUSH1 0x4 ADD PUSH2 0x146 SWAP1 PUSH2 0x10C3 JUMP JUMPDEST PUSH2 0xD98 DUP6 PUSH2 0xE2D JUMP JUMPDEST PUSH2 0xDB4 JUMPI PUSH1 0x40 MLOAD PUSH3 0x461BCD PUSH1 0xE5 SHL DUP2 MSTORE PUSH1 0x4 ADD PUSH2 0x146 SWAP1 PUSH2 0x11CE JUMP JUMPDEST PUSH1 0x0 DUP1 DUP7 PUSH1 0x1 PUSH1 0x1 PUSH1 0xA0 SHL SUB AND DUP6 DUP8 PUSH1 0x40 MLOAD PUSH2 0xDD0 SWAP2 SWAP1 PUSH2 0xF67 JUMP JUMPDEST PUSH1 0x0 PUSH1 0x40 MLOAD DUP1 DUP4 SUB DUP2 DUP6 DUP8 GAS CALL SWAP3 POP POP POP RETURNDATASIZE DUP1 PUSH1 0x0 DUP2 EQ PUSH2 0xE0D JUMPI PUSH1 0x40 MLOAD SWAP2 POP PUSH1 0x1F NOT PUSH1 0x3F RETURNDATASIZE ADD AND DUP3 ADD PUSH1 0x40 MSTORE RETURNDATASIZE DUP3 MSTORE RETURNDATASIZE PUSH1 0x0 PUSH1 0x20 DUP5 ADD RETURNDATACOPY PUSH2 0xE12 JUMP JUMPDEST PUSH1 0x60 SWAP2 POP JUMPDEST POP SWAP2 POP SWAP2 POP PUSH2 0xE22 DUP3 DUP3 DUP7 PUSH2 0xE33 JUMP JUMPDEST SWAP8 SWAP7 POP POP POP POP POP POP POP JUMP JUMPDEST EXTCODESIZE ISZERO ISZERO SWAP1 JUMP JUMPDEST PUSH1 0x60 DUP4 ISZERO PUSH2 0xE42 JUMPI POP DUP2 PUSH2 0x4B7 JUMP JUMPDEST DUP3 MLOAD ISZERO PUSH2 0xE52 JUMPI DUP3 MLOAD DUP1 DUP5 PUSH1 0x20 ADD REVERT JUMPDEST DUP2 PUSH1 0x40 MLOAD PUSH3 0x461BCD PUSH1 0xE5 SHL DUP2 MSTORE PUSH1 0x4 ADD PUSH2 0x146 SWAP2 SWAP1 PUSH2 0xFE4 JUMP JUMPDEST DUP1 CALLDATALOAD PUSH1 0x1 PUSH1 0x1 PUSH1 0xA0 SHL SUB DUP2 AND DUP2 EQ PUSH2 0x5F3 JUMPI PUSH1 0x0 DUP1 REVERT JUMPDEST PUSH1 0x0 PUSH1 0x20 DUP3 DUP5 SUB SLT ISZERO PUSH2 0xE94 JUMPI DUP1 DUP2 REVERT JUMPDEST PUSH2 0x4B7 DUP3 PUSH2 0xE6C JUMP JUMPDEST PUSH1 0x0 PUSH1 0x20 DUP3 DUP5 SUB SLT ISZERO PUSH2 0xEAE JUMPI DUP1 DUP2 REVERT JUMPDEST DUP2 MLOAD DUP1 ISZERO ISZERO DUP2 EQ PUSH2 0x4B7 JUMPI DUP2 DUP3 REVERT JUMPDEST PUSH1 0x0 PUSH1 0x20 DUP3 DUP5 SUB SLT ISZERO PUSH2 0xECE JUMPI DUP1 DUP2 REVERT JUMPDEST POP CALLDATALOAD SWAP2 SWAP1 POP JUMP JUMPDEST PUSH1 0x0 DUP1 PUSH1 0x0 DUP1 PUSH1 0x60 DUP6 DUP8 SUB SLT ISZERO PUSH2 0xEEA JUMPI DUP3 DUP4 REVERT JUMPDEST DUP5 CALLDATALOAD SWAP4 POP PUSH2 0xEFA PUSH1 0x20 DUP7 ADD PUSH2 0xE6C JUMP JUMPDEST SWAP3 POP PUSH1 0x40 DUP6 ADD CALLDATALOAD PUSH8 0xFFFFFFFFFFFFFFFF DUP1 DUP3 GT ISZERO PUSH2 0xF16 JUMPI DUP4 DUP5 REVERT JUMPDEST DUP2 DUP8 ADD SWAP2 POP DUP8 PUSH1 0x1F DUP4 ADD SLT PUSH2 0xF29 JUMPI DUP4 DUP5 REVERT JUMPDEST DUP2 CALLDATALOAD DUP2 DUP2 GT ISZERO PUSH2 0xF37 JUMPI DUP5 DUP6 REVERT JUMPDEST DUP9 PUSH1 0x20 DUP1 DUP4 MUL DUP6 ADD ADD GT ISZERO PUSH2 0xF4A JUMPI DUP5 DUP6 REVERT JUMPDEST SWAP6 SWAP9 SWAP5 SWAP8 POP POP PUSH1 0x20 ADD SWAP5 POP POP POP JUMP JUMPDEST SWAP2 DUP3 MSTORE PUSH1 0x20 DUP3 ADD MSTORE PUSH1 0x40 ADD SWAP1 JUMP JUMPDEST PUSH1 0x0 DUP3 MLOAD PUSH2 0xF79 DUP2 DUP5 PUSH1 0x20 DUP8 ADD PUSH2 0x12F1 JUMP JUMPDEST SWAP2 SWAP1 SWAP2 ADD SWAP3 SWAP2 POP POP JUMP JUMPDEST SWAP2 DUP3 MSTORE PUSH1 0x60 SHL PUSH12 0xFFFFFFFFFFFFFFFFFFFFFFFF NOT AND PUSH1 0x20 DUP3 ADD MSTORE PUSH1 0x34 ADD SWAP1 JUMP JUMPDEST PUSH1 0x1 PUSH1 0x1 PUSH1 0xA0 SHL SUB SWAP2 SWAP1 SWAP2 AND DUP2 MSTORE PUSH1 0x20 ADD SWAP1 JUMP JUMPDEST PUSH1 0x1 PUSH1 0x1 PUSH1 0xA0 SHL SUB SWAP3 SWAP1 SWAP3 AND DUP3 MSTORE PUSH1 0x20 DUP3 ADD MSTORE PUSH1 0x40 ADD SWAP1 JUMP JUMPDEST SWAP1 ISZERO ISZERO DUP2 MSTORE PUSH1 0x20 ADD SWAP1 JUMP JUMPDEST SWAP1 DUP2 MSTORE PUSH1 0x20 ADD SWAP1 JUMP JUMPDEST PUSH1 0x0 PUSH1 0x20 DUP3 MSTORE DUP3 MLOAD DUP1 PUSH1 0x20 DUP5 ADD MSTORE PUSH2 0x1003 DUP2 PUSH1 0x40 DUP6 ADD PUSH1 0x20 DUP8 ADD PUSH2 0x12F1 JUMP JUMPDEST PUSH1 0x1F ADD PUSH1 0x1F NOT AND SWAP2 SWAP1 SWAP2 ADD PUSH1 0x40 ADD SWAP3 SWAP2 POP POP JUMP JUMPDEST PUSH1 0x20 DUP1 DUP3 MSTORE PUSH1 0xA SWAP1 DUP3 ADD MSTORE PUSH10 0x1B9BC819195C1BDCDA5D PUSH1 0xB2 SHL PUSH1 0x40 DUP3 ADD MSTORE PUSH1 0x60 ADD SWAP1 JUMP JUMPDEST PUSH1 0x20 DUP1 DUP3 MSTORE PUSH1 0xF SWAP1 DUP3 ADD MSTORE PUSH15 0x1CD85B19481A185CC818DB1BDCD959 PUSH1 0x8A SHL PUSH1 0x40 DUP3 ADD MSTORE PUSH1 0x60 ADD SWAP1 JUMP JUMPDEST PUSH1 0x20 DUP1 DUP3 MSTORE PUSH1 0x17 SWAP1 DUP3 ADD MSTORE PUSH32 0x73616C65206861736E2774207374617274656420796574000000000000000000 PUSH1 0x40 DUP3 ADD MSTORE PUSH1 0x60 ADD SWAP1 JUMP JUMPDEST PUSH1 0x20 DUP1 DUP3 MSTORE PUSH1 0xE SWAP1 DUP3 ADD MSTORE PUSH14 0x1A5B9D985B1A5908185B5BDD5B9D PUSH1 0x92 SHL PUSH1 0x40 DUP3 ADD MSTORE PUSH1 0x60 ADD SWAP1 JUMP JUMPDEST PUSH1 0x20 DUP1 DUP3 MSTORE PUSH1 0x26 SWAP1 DUP3 ADD MSTORE PUSH32 0x416464726573733A20696E73756666696369656E742062616C616E636520666F PUSH1 0x40 DUP3 ADD MSTORE PUSH6 0x1C8818D85B1B PUSH1 0xD2 SHL PUSH1 0x60 DUP3 ADD MSTORE PUSH1 0x80 ADD SWAP1 JUMP JUMPDEST PUSH1 0x20 DUP1 DUP3 MSTORE PUSH1 0xF SWAP1 DUP3 ADD MSTORE PUSH15 0x696E76616C69642061646472657373 PUSH1 0x88 SHL PUSH1 0x40 DUP3 ADD MSTORE PUSH1 0x60 ADD SWAP1 JUMP JUMPDEST PUSH1 0x20 DUP1 DUP3 MSTORE PUSH1 0x18 SWAP1 DUP3 ADD MSTORE PUSH32 0x6D6178696D756D206465706F7369747320726561636865640000000000000000 PUSH1 0x40 DUP3 ADD MSTORE PUSH1 0x60 ADD SWAP1 JUMP JUMPDEST PUSH1 0x20 DUP1 DUP3 MSTORE PUSH1 0x17 SWAP1 DUP3 ADD MSTORE PUSH32 0x63616C6C6572206973206E6F7420746865206F776E6572000000000000000000 PUSH1 0x40 DUP3 ADD MSTORE PUSH1 0x60 ADD SWAP1 JUMP JUMPDEST PUSH1 0x20 DUP1 DUP3 MSTORE PUSH1 0x14 SWAP1 DUP3 ADD MSTORE PUSH20 0x19195C1BDCDA5D08185B1C9958591E481D5CD959 PUSH1 0x62 SHL PUSH1 0x40 DUP3 ADD MSTORE PUSH1 0x60 ADD SWAP1 JUMP JUMPDEST PUSH1 0x20 DUP1 DUP3 MSTORE PUSH1 0x1D SWAP1 DUP3 ADD MSTORE PUSH32 0x416464726573733A2063616C6C20746F206E6F6E2D636F6E7472616374000000 PUSH1 0x40 DUP3 ADD MSTORE PUSH1 0x60 ADD SWAP1 JUMP JUMPDEST PUSH1 0x20 DUP1 DUP3 MSTORE PUSH1 0xD SWAP1 DUP3 ADD MSTORE PUSH13 0x34B73B30B634B210383937B7B3 PUSH1 0x99 SHL PUSH1 0x40 DUP3 ADD MSTORE PUSH1 0x60 ADD SWAP1 JUMP JUMPDEST PUSH1 0x20 DUP1 DUP3 MSTORE PUSH1 0x2A SWAP1 DUP3 ADD MSTORE PUSH32 0x5361666545524332303A204552433230206F7065726174696F6E20646964206E PUSH1 0x40 DUP3 ADD MSTORE PUSH10 0x1BDD081CDD58D8D95959 PUSH1 0xB2 SHL PUSH1 0x60 DUP3 ADD MSTORE PUSH1 0x80 ADD SWAP1 JUMP JUMPDEST PUSH1 0x20 DUP1 DUP3 MSTORE PUSH1 0x16 SWAP1 DUP3 ADD MSTORE PUSH22 0x1CD85B19481A185CDB89DD0818DB1BDCD959081E595D PUSH1 0x52 SHL PUSH1 0x40 DUP3 ADD MSTORE PUSH1 0x60 ADD SWAP1 JUMP JUMPDEST PUSH1 0x0 DUP3 NOT DUP3 GT ISZERO PUSH2 0x12B9 JUMPI PUSH2 0x12B9 PUSH2 0x1350 JUMP JUMPDEST POP ADD SWAP1 JUMP JUMPDEST PUSH1 0x0 DUP3 PUSH2 0x12CD JUMPI PUSH2 0x12CD PUSH2 0x1366 JUMP JUMPDEST POP DIV SWAP1 JUMP JUMPDEST PUSH1 0x0 DUP2 PUSH1 0x0 NOT DIV DUP4 GT DUP3 ISZERO ISZERO AND ISZERO PUSH2 0x12EC JUMPI PUSH2 0x12EC PUSH2 0x1350 JUMP JUMPDEST POP MUL SWAP1 JUMP JUMPDEST PUSH1 0x0 JUMPDEST DUP4 DUP2 LT ISZERO PUSH2 0x130C JUMPI DUP2 DUP2 ADD MLOAD DUP4 DUP3 ADD MSTORE PUSH1 0x20 ADD PUSH2 0x12F4 JUMP JUMPDEST DUP4 DUP2 GT ISZERO PUSH2 0x131B JUMPI PUSH1 0x0 DUP5 DUP5 ADD MSTORE JUMPDEST POP POP POP POP JUMP JUMPDEST PUSH1 0x0 PUSH1 0x0 NOT DUP3 EQ ISZERO PUSH2 0x1335 JUMPI PUSH2 0x1335 PUSH2 0x1350 JUMP JUMPDEST POP PUSH1 0x1 ADD SWAP1 JUMP JUMPDEST PUSH1 0x0 DUP3 PUSH2 0x134B JUMPI PUSH2 0x134B PUSH2 0x1366 JUMP JUMPDEST POP MOD SWAP1 JUMP JUMPDEST PUSH4 0x4E487B71 PUSH1 0xE0 SHL PUSH1 0x0 MSTORE PUSH1 0x11 PUSH1 0x4 MSTORE PUSH1 0x24 PUSH1 0x0 REVERT JUMPDEST PUSH4 0x4E487B71 PUSH1 0xE0 SHL PUSH1 0x0 MSTORE PUSH1 0x12 PUSH1 0x4 MSTORE PUSH1 0x24 PUSH1 0x0 REVERT INVALID LOG2 PUSH5 0x6970667358 0x22 SLT KECCAK256 0xDD ADD 0xB0 SWAP7 EXTCODESIZE 0x2C MULMOD NUMBER 0xCE MOD PUSH32 0xDA08F2F966B8D56940E53DCD68569ED98625C4604B64736F6C63430008000033 "
        },
        "methodIdentifiers": {
          "claim(address)": "1e83409a",
          "claimAmount(address)": "78317be7",
          "deposit(address)": "f340fa01",
          "depositForWhitelistedAddress(uint256,address,bytes32[])": "67c870cf",
          "deposits(address)": "fc7e286d",
          "dpx()": "43365f8c",
          "dpxTokensAllocated()": "b4f2380c",
          "isWhitelistedAddressDeposited(uint256)": "d16034d8",
          "maxDeposits()": "354d594b",
          "maxWhitelistDeposit()": "d6d0e6ed",
          "merkleRoot()": "2eb4a7ab",
          "owner()": "8da5cb5b",
          "rdpx()": "1f9902f5",
          "rdpxTokensAllocated()": "672fc2dd",
          "saleClose()": "d6207c42",
          "saleStart()": "ab0bcc41",
          "saleWhitelistStart()": "c3c5574a",
          "totalSaleParticipants()": "32befd08",
          "weiDeposited()": "65302f68",
          "withdraw()": "3ccfd60b"
        }
      }
    }
  }
}