{
  "_format": "hh-sol-artifact-1",
  "contractName": "DopexTokenSale",
  "sourceName": "contracts/TokenSale.sol",
  "abi": [
    {
      "inputs": [
        {
          "internalType": "address",
          "name": "_dpx",
          "type": "address"
        },
        {
          "internalType": "address",
          "name": "_rdpx",
          "type": "address"
        },
        {
          "internalType": "address",
          "name": "_owner",
          "type": "address"
        },
        {
          "internalType": "uint256",
          "name": "_saleWhitelistStart",
          "type": "uint256"
        },
        {
          "internalType": "uint256",
          "name": "_saleStart",
          "type": "uint256"
        },
        {
          "internalType": "uint256",
          "name": "_saleClose",
          "type": "uint256"
        },
        {
          "internalType": "uint256",
          "name": "_maxDeposits",
          "type": "uint256"
        },
        {
          "internalType": "uint256",
          "name": "_dpxTokensAllocated",
          "type": "uint256"
        },
        {
          "internalType": "uint256",
          "name": "_rdpxTokensAllocated",
          "type": "uint256"
        },
        {
          "internalType": "uint256",
          "name": "_maxWhitelistDeposit",
          "type": "uint256"
        },
        {
          "internalType": "bytes32",
          "name": "_merkleRoot",
          "type": "bytes32"
        }
      ],
      "stateMutability": "nonpayable",
      "type": "constructor"
    },
    {
      "anonymous": false,
      "inputs": [
        {
          "indexed": true,
          "internalType": "address",
          "name": "claimer",
          "type": "address"
        },
        {
          "indexed": true,
          "internalType": "address",
          "name": "beneficiary",
          "type": "address"
        },
        {
          "indexed": false,
          "internalType": "uint256",
          "name": "amount",
          "type": "uint256"
        }
      ],
      "name": "TokenClaim",
      "type": "event"
    },
    {
      "anonymous": false,
      "inputs": [
        {
          "indexed": true,
          "internalType": "address",
          "name": "purchaser",
          "type": "address"
        },
        {
          "indexed": true,
          "internalType": "address",
          "name": "beneficiary",
          "type": "address"
        },
        {
          "indexed": true,
          "internalType": "bool",
          "name": "isWhitelistDeposit",
          "type": "bool"
        },
        {
          "indexed": false,
          "internalType": "uint256",
          "name": "value",
          "type": "uint256"
        }
      ],
      "name": "TokenDeposit",
      "type": "event"
    },
    {
      "anonymous": false,
      "inputs": [
        {
          "indexed": false,
          "internalType": "uint256",
          "name": "amount",
          "type": "uint256"
        }
      ],
      "name": "WithdrawEth",
      "type": "event"
    },
    {
      "inputs": [
        {
          "internalType": "address",
          "name": "beneficiary",
          "type": "address"
        }
      ],
      "name": "claim",
      "outputs": [
        {
          "internalType": "uint256",
          "name": "",
          "type": "uint256"
        }
      ],
      "stateMutability": "nonpayable",
      "type": "function"
    },
    {
      "inputs": [
        {
          "internalType": "address",
          "name": "beneficiary",
          "type": "address"
        }
      ],
      "name": "claimAmount",
      "outputs": [
        {
          "internalType": "uint256",
          "name": "",
          "type": "uint256"
        }
      ],
      "stateMutability": "view",
      "type": "function"
    },
    {
      "inputs": [
        {
          "internalType": "address",
          "name": "beneficiary",
          "type": "address"
        }
      ],
      "name": "deposit",
      "outputs": [],
      "stateMutability": "payable",
      "type": "function"
    },
    {
      "inputs": [
        {
          "internalType": "uint256",
          "name": "index",
          "type": "uint256"
        },
        {
          "internalType": "address",
          "name": "beneficiary",
          "type": "address"
        },
        {
          "internalType": "bytes32[]",
          "name": "merkleProof",
          "type": "bytes32[]"
        }
      ],
      "name": "depositForWhitelistedAddress",
      "outputs": [],
      "stateMutability": "payable",
      "type": "function"
    },
    {
      "inputs": [
        {
          "internalType": "address",
          "name": "",
          "type": "address"
        }
      ],
      "name": "deposits",
      "outputs": [
        {
          "internalType": "uint256",
          "name": "",
          "type": "uint256"
        }
      ],
      "stateMutability": "view",
      "type": "function"
    },
    {
      "inputs": [],
      "name": "dpx",
      "outputs": [
        {
          "internalType": "contract IERC20",
          "name": "",
          "type": "address"
        }
      ],
      "stateMutability": "view",
      "type": "function"
    },
    {
      "inputs": [],
      "name": "dpxTokensAllocated",
      "outputs": [
        {
          "internalType": "uint256",
          "name": "",
          "type": "uint256"
        }
      ],
      "stateMutability": "view",
      "type": "function"
    },
    {
      "inputs": [
        {
          "internalType": "uint256",
          "name": "index",
          "type": "uint256"
        }
      ],
      "name": "isWhitelistedAddressDeposited",
      "outputs": [
        {
          "internalType": "bool",
          "name": "",
          "type": "bool"
        }
      ],
      "stateMutability": "view",
      "type": "function"
    },
    {
      "inputs": [],
      "name": "maxDeposits",
      "outputs": [
        {
          "internalType": "uint256",
          "name": "",
          "type": "uint256"
        }
      ],
      "stateMutability": "view",
      "type": "function"
    },
    {
      "inputs": [],
      "name": "maxWhitelistDeposit",
      "outputs": [
        {
          "internalType": "uint256",
          "name": "",
          "type": "uint256"
        }
      ],
      "stateMutability": "view",
      "type": "function"
    },
    {
      "inputs": [],
      "name": "merkleRoot",
      "outputs": [
        {
          "internalType": "bytes32",
          "name": "",
          "type": "bytes32"
        }
      ],
      "stateMutability": "view",
      "type": "function"
    },
    {
      "inputs": [],
      "name": "owner",
      "outputs": [
        {
          "internalType": "address",
          "name": "",
          "type": "address"
        }
      ],
      "stateMutability": "view",
      "type": "function"
    },
    {
      "inputs": [],
      "name": "rdpx",
      "outputs": [
        {
          "internalType": "contract IERC20",
          "name": "",
          "type": "address"
        }
      ],
      "stateMutability": "view",
      "type": "function"
    },
    {
      "inputs": [],
      "name": "rdpxTokensAllocated",
      "outputs": [
        {
          "internalType": "uint256",
          "name": "",
          "type": "uint256"
        }
      ],
      "stateMutability": "view",
      "type": "function"
    },
    {
      "inputs": [],
      "name": "saleClose",
      "outputs": [
        {
          "internalType": "uint256",
          "name": "",
          "type": "uint256"
        }
      ],
      "stateMutability": "view",
      "type": "function"
    },
    {
      "inputs": [],
      "name": "saleStart",
      "outputs": [
        {
          "internalType": "uint256",
          "name": "",
          "type": "uint256"
        }
      ],
      "stateMutability": "view",
      "type": "function"
    },
    {
      "inputs": [],
      "name": "saleWhitelistStart",
      "outputs": [
        {
          "internalType": "uint256",
          "name": "",
          "type": "uint256"
        }
      ],
      "stateMutability": "view",
      "type": "function"
    },
    {
      "inputs": [],
      "name": "totalSaleParticipants",
      "outputs": [
        {
          "internalType": "uint256",
          "name": "",
          "type": "uint256"
        }
      ],
      "stateMutability": "view",
      "type": "function"
    },
    {
      "inputs": [],
      "name": "weiDeposited",
      "outputs": [
        {
          "internalType": "uint256",
          "name": "",
          "type": "uint256"
        }
      ],
      "stateMutability": "view",
      "type": "function"
    },
    {
      "inputs": [],
      "name": "withdraw",
      "outputs": [],
      "stateMutability": "nonpayable",
      "type": "function"
    },
    {
      "stateMutability": "payable",
      "type": "receive"
    }
  ],
  "bytecode": "0x60806040523480156200001157600080fd5b50604051620017b0380380620017b08339810160408190526200003491620001eb565b6001600160a01b038916620000665760405162461bcd60e51b81526004016200005d90620002b0565b60405180910390fd5b6001600160a01b038b166200008f5760405162461bcd60e51b81526004016200005d90620002e7565b6001600160a01b038a16620000b85760405162461bcd60e51b81526004016200005d90620002e7565b42871015620000db5760405162461bcd60e51b81526004016200005d9062000285565b868611620000fd5760405162461bcd60e51b81526004016200005d90620003c3565b60008511620001205760405162461bcd60e51b81526004016200005d906200038c565b60008411620001435760405162461bcd60e51b81526004016200005d906200031e565b60008311620001665760405162461bcd60e51b81526004016200005d9062000355565b600080546001600160a01b03199081166001600160a01b039d8e16179091556001805482169b8d169b909b17909a5560028054909a1698909a1697909717909755600494909455600592909255600655600755600855600991909155600b55600c55620003ee565b80516001600160a01b0381168114620001e657600080fd5b919050565b60008060008060008060008060008060006101608c8e0312156200020d578687fd5b620002188c620001ce565b9a506200022860208d01620001ce565b99506200023860408d01620001ce565b985060608c0151975060808c0151965060a08c0151955060c08c0151945060e08c015193506101008c015192506101208c015191506101408c015190509295989b509295989b9093969950565b6020808252601190820152701a5b9d985b1a59081cd85b1954dd185c9d607a1b604082015260600190565b60208082526015908201527f696e76616c6964206f776e657220616464726573730000000000000000000000604082015260600190565b60208082526015908201527f696e76616c696420746f6b656e20616464726573730000000000000000000000604082015260600190565b6020808252601a908201527f696e76616c696420647078546f6b656e73416c6c6f6361746564000000000000604082015260600190565b6020808252601b908201527f696e76616c69642072647078546f6b656e73416c6c6f63617465640000000000604082015260600190565b60208082526013908201527f696e76616c6964206d61784465706f7369747300000000000000000000000000604082015260600190565b602080825260119082015270696e76616c69642073616c65436c6f736560781b604082015260600190565b6113b280620003fe6000396000f3fe6080604052600436106101235760003560e01c806378317be7116100a0578063d16034d811610064578063d16034d814610421578063d6207c421461044e578063d6d0e6ed14610463578063f340fa0114610478578063fc7e286d1461048b576102a8565b806378317be7146103ad5780638da5cb5b146103cd578063ab0bcc41146103e2578063b4f2380c146103f7578063c3c5574a1461040c576102a8565b80633ccfd60b116100e75780633ccfd60b1461034457806343365f8c1461035b57806365302f6814610370578063672fc2dd1461038557806367c870cf1461039a576102a8565b80631e83409a146102ad5780631f9902f5146102e35780632eb4a7ab1461030557806332befd081461031a578063354d594b1461032f576102a8565b366102a857338061014f5760405162461bcd60e51b815260040161014690611109565b60405180910390fd5b6000341161016f5760405162461bcd60e51b81526004016101469061109b565b6007543460035461018091906112a6565b111561019e5760405162461bcd60e51b815260040161014690611132565b4260055411156101c05760405162461bcd60e51b815260040161014690611064565b6006544211156101e25760405162461bcd60e51b81526004016101469061103b565b6001600160a01b0381166000908152600d602052604090205461021157600a5461020d9060016104ab565b600a555b6001600160a01b0381166000908152600d602052604090205461023490346104ab565b6001600160a01b0382166000908152600d602052604090205560035461025a90346104ab565b6003556040516000906001600160a01b0383169033907fe6b914a63dc1d3f40b8ad81fcd4b6b7fcc015529c8f740a37c362a0d91a0b1769061029d903490610fdb565b60405180910390a450005b600080fd5b3480156102b957600080fd5b506102cd6102c8366004610e83565b6104be565b6040516102da9190610fdb565b60405180910390f35b3480156102ef57600080fd5b506102f86105f8565b6040516102da9190610fa3565b34801561031157600080fd5b506102cd610607565b34801561032657600080fd5b506102cd61060d565b34801561033b57600080fd5b506102cd610613565b34801561035057600080fd5b50610359610619565b005b34801561036757600080fd5b506102f86106ae565b34801561037c57600080fd5b506102cd6106bd565b34801561039157600080fd5b506102cd6106c3565b6103596103a8366004610ed5565b6106c9565b3480156103b957600080fd5b506102cd6103c8366004610e83565b610913565b3480156103d957600080fd5b506102f861095c565b3480156103ee57600080fd5b506102cd61096b565b34801561040357600080fd5b506102cd610971565b34801561041857600080fd5b506102cd610977565b34801561042d57600080fd5b5061044161043c366004610ebd565b61097d565b6040516102da9190610fd0565b34801561045a57600080fd5b506102cd6109be565b34801561046f57600080fd5b506102cd6109c4565b610359610486366004610e83565b6109ca565b34801561049757600080fd5b506102cd6104a6366004610e83565b610b49565b60006104b782846112a6565b9392505050565b6001600160a01b0381166000908152600d60205260408120546104f35760405162461bcd60e51b815260040161014690611017565b60065442116105145760405162461bcd60e51b815260040161014690611276565b6003546001600160a01b0383166000908152600d6020526040812054600854919261054b9290916105459190610b5b565b90610b67565b6001600160a01b038085166000908152600d602052604081208190555491925061057791168483610b73565b6105a583610592600a54600954610b6790919063ffffffff16565b6001546001600160a01b03169190610b73565b826001600160a01b0316336001600160a01b03167fe08b397913fb308a6f799d3059933c86ebc9c03957a83af3e932ea54e979e52a836040516105e89190610fdb565b60405180910390a390505b919050565b6001546001600160a01b031681565b600c5481565b600a5481565b60075481565b6002546001600160a01b031633146106435760405162461bcd60e51b815260040161014690611169565b604051303190339082156108fc029083906000818181858888f19350505050158015610673573d6000803e3d6000fd5b507fb2a3fd05447b0260cac7f8db72bfb10790a24739428c6d3abe439e09fcac37f9816040516106a39190610fdb565b60405180910390a150565b6000546001600160a01b031681565b60035481565b60095481565b6106d28461097d565b156106ef5760405162461bcd60e51b8152600401610146906111a0565b6001600160a01b0383166107155760405162461bcd60e51b815260040161014690611109565b6000341180156107275750600b543411155b6107435760405162461bcd60e51b81526004016101469061109b565b6007543460035461075491906112a6565b11156107725760405162461bcd60e51b815260040161014690611132565b4260045411156107945760405162461bcd60e51b815260040161014690611064565b6006544211156107b65760405162461bcd60e51b81526004016101469061103b565b600084846040516020016107cb929190610f83565b60405160208183030381529060405280519060200120905061082483838080602002602001604051908101604052809392919081815260200183836020028082843760009201919091525050600c549150849050610bce565b6108405760405162461bcd60e51b815260040161014690611205565b61084985610c89565b6001600160a01b0384166000908152600d602052604090205461087857600a546108749060016104ab565b600a555b6001600160a01b0384166000908152600d602052604090205461089b90346104ab565b6001600160a01b0385166000908152600d60205260409020556003546108c190346104ab565b6003556040516001906001600160a01b0386169033907fe6b914a63dc1d3f40b8ad81fcd4b6b7fcc015529c8f740a37c362a0d91a0b17690610904903490610fdb565b60405180910390a45050505050565b600060035460001415610928575060006105f3565b6003546001600160a01b0383166000908152600d602052604090205460085461095692916105459190610b5b565b92915050565b6002546001600160a01b031681565b60055481565b60085481565b60045481565b60008061098c610100846112be565b9050600061099c6101008561133c565b6000928352600e602052604090922054600190921b9182169091149392505050565b60065481565b600b5481565b6001600160a01b0381166109f05760405162461bcd60e51b815260040161014690611109565b60003411610a105760405162461bcd60e51b81526004016101469061109b565b60075434600354610a2191906112a6565b1115610a3f5760405162461bcd60e51b815260040161014690611132565b426005541115610a615760405162461bcd60e51b815260040161014690611064565b600654421115610a835760405162461bcd60e51b81526004016101469061103b565b6001600160a01b0381166000908152600d6020526040902054610ab257600a54610aae9060016104ab565b600a555b6001600160a01b0381166000908152600d6020526040902054610ad590346104ab565b6001600160a01b0382166000908152600d6020526040902055600354610afb90346104ab565b6003556040516000906001600160a01b0383169033907fe6b914a63dc1d3f40b8ad81fcd4b6b7fcc015529c8f740a37c362a0d91a0b17690610b3e903490610fdb565b60405180910390a450565b600d6020526000908152604090205481565b60006104b782846112d2565b60006104b782846112be565b610bc98363a9059cbb60e01b8484604051602401610b92929190610fb7565b60408051601f198184030181529190526020810180516001600160e01b03166001600160e01b031990931692909217909152610cc7565b505050565b600081815b8551811015610c7e576000868281518110610bfe57634e487b7160e01b600052603260045260246000fd5b60200260200101519050808311610c3f578281604051602001610c22929190610f59565b604051602081830303815290604052805190602001209250610c6b565b8083604051602001610c52929190610f59565b6040516020818303038152906040528051906020012092505b5080610c7681611321565b915050610bd3565b509092149392505050565b6000610c97610100836112be565b90506000610ca76101008461133c565b6000928352600e60205260409092208054600190931b9092179091555050565b6000610d1c826040518060400160405280602081526020017f5361666545524332303a206c6f772d6c6576656c2063616c6c206661696c6564815250856001600160a01b0316610d569092919063ffffffff16565b805190915015610bc95780806020019051810190610d3a9190610e9d565b610bc95760405162461bcd60e51b81526004016101469061122c565b6060610d658484600085610d6d565b949350505050565b606082471015610d8f5760405162461bcd60e51b8152600401610146906110c3565b610d9885610e2d565b610db45760405162461bcd60e51b8152600401610146906111ce565b600080866001600160a01b03168587604051610dd09190610f67565b60006040518083038185875af1925050503d8060008114610e0d576040519150601f19603f3d011682016040523d82523d6000602084013e610e12565b606091505b5091509150610e22828286610e33565b979650505050505050565b3b151590565b60608315610e425750816104b7565b825115610e525782518084602001fd5b8160405162461bcd60e51b81526004016101469190610fe4565b80356001600160a01b03811681146105f357600080fd5b600060208284031215610e94578081fd5b6104b782610e6c565b600060208284031215610eae578081fd5b815180151581146104b7578182fd5b600060208284031215610ece578081fd5b5035919050565b60008060008060608587031215610eea578283fd5b84359350610efa60208601610e6c565b9250604085013567ffffffffffffffff80821115610f16578384fd5b818701915087601f830112610f29578384fd5b813581811115610f37578485fd5b8860208083028501011115610f4a578485fd5b95989497505060200194505050565b918252602082015260400190565b60008251610f798184602087016112f1565b9190910192915050565b91825260601b6bffffffffffffffffffffffff1916602082015260340190565b6001600160a01b0391909116815260200190565b6001600160a01b03929092168252602082015260400190565b901515815260200190565b90815260200190565b60006020825282518060208401526110038160408501602087016112f1565b601f01601f19169190910160400192915050565b6020808252600a90820152691b9bc819195c1bdcda5d60b21b604082015260600190565b6020808252600f908201526e1cd85b19481a185cc818db1bdcd959608a1b604082015260600190565b60208082526017908201527f73616c65206861736e2774207374617274656420796574000000000000000000604082015260600190565b6020808252600e908201526d1a5b9d985b1a5908185b5bdd5b9d60921b604082015260600190565b60208082526026908201527f416464726573733a20696e73756666696369656e742062616c616e636520666f6040820152651c8818d85b1b60d21b606082015260800190565b6020808252600f908201526e696e76616c6964206164647265737360881b604082015260600190565b60208082526018908201527f6d6178696d756d206465706f7369747320726561636865640000000000000000604082015260600190565b60208082526017908201527f63616c6c6572206973206e6f7420746865206f776e6572000000000000000000604082015260600190565b60208082526014908201527319195c1bdcda5d08185b1c9958591e481d5cd95960621b604082015260600190565b6020808252601d908201527f416464726573733a2063616c6c20746f206e6f6e2d636f6e7472616374000000604082015260600190565b6020808252600d908201526c34b73b30b634b210383937b7b360991b604082015260600190565b6020808252602a908201527f5361666545524332303a204552433230206f7065726174696f6e20646964206e6040820152691bdd081cdd58d8d9595960b21b606082015260800190565b6020808252601690820152751cd85b19481a185cdb89dd0818db1bdcd959081e595d60521b604082015260600190565b600082198211156112b9576112b9611350565b500190565b6000826112cd576112cd611366565b500490565b60008160001904831182151516156112ec576112ec611350565b500290565b60005b8381101561130c5781810151838201526020016112f4565b8381111561131b576000848401525b50505050565b600060001982141561133557611335611350565b5060010190565b60008261134b5761134b611366565b500690565b634e487b7160e01b600052601160045260246000fd5b634e487b7160e01b600052601260045260246000fdfea2646970667358221220dd01b0963b2c0943ce067fda08f2f966b8d56940e53dcd68569ed98625c4604b64736f6c63430008000033",
  "linkReferences": {},
  "deployedLinkReferences": {}
}